:020000022000DC
:10600000000001203D6202009562020097620200DA
:10601000996202009B6202009D6202000000000083
:106020000000000000000000000000009F6202006D
:10603000A162020000000000A3620200A56202004B
:1060400045880200AB620200618D0200AF6202006F
:10605000B1620200B3620200E58B0200B762020087
:10606000B9620200BB620200BD620200BF620200B0
:10607000C1620200C3620200C5620200C762020080
:10608000C962020041710200CD620200CF620200CB
:10609000DD710200D3620200B9D00200D7620200B3
:1060A000D9620200DB620200DD620200DF620200F0
:1060B000E1620200E3620200A7620200A76202003E
:1060C000E5620200E7620200E9620200EB620200A0
:0C60D000ED620200EF620200F1620200CB
:1060DC00364937480A1A02D0072291438D46354972
:1060EC0035480A1A06D00722914381F30988022207
:1060FC0082F3148831483249324A00F045F832486C
:10610C003249334A00F040F832483349334A00F000
:10611C003BF833483349344A00F036F833483449B5
:10612C00344A00F031F834483449354A00F02CF840
:10613C0034483549354A00F027F8354835490022AE
:10614C0000F02DF834483549002200F028F8344886
:10615C003449091A082903DB00220260043001606B
:10616C00314A90471F482049884205D002680430C4
:10617C0003B4904703BCF7E700208646EC460020AA
:10618C0000212A4A9047FEE7884207D0521A05D0D0
:10619C00037801300B700131013AF9D17047884214
:1061AC0002D002700130FAE77047000000000120B5
:1061BC0000F0002000000120000001203CEB020058
:1061CC004420002068210020F4620200F4620200E6
:1061DC00F6D902003CEB02004420002044200020B1
:1061EC006CDB02006CDB02006CDB02006CDB02007F
:1061FC006CDB02006CDB02006CDB02006CDB02006F
:10620C003CEB020060EC02006821002068210020B9
:10621C0068210020A2420020A4420020A8420020B5
:10622C00A8420020A852002061620200F9A30200DB
:10623C000F484FF00701884385460E4880470E48AB
:10624C00016841F470010160BFF34F8FBFF36F8F92
:10625C00FFF73EBF09480A490A4A884207D0521A3A
:10626C0005D0037801300B700131013AF9D1704738
:10627C0000000120C182020088ED00E028DB020052
:10628C000020002044200020FEE7FEE7FEE7FEE7AA
:10629C00FEE7FEE7FEE7FEE7FEE7FEE7FEE7FEE7CA
:1062AC00FEE7FEE7FEE7FEE7FEE7FEE7FEE7FEE7BA
:1062BC00FEE7FEE7FEE7FEE7FEE7FEE7FEE7FEE7AA
:1062CC00FEE7FEE7FEE7FEE7FEE7FEE7FEE7FEE79A
:1062DC00FEE7FEE7FEE7FEE7FEE7FEE7FEE7FEE78A
:0862EC00FEE7FEE7FEE700BF3C
:1062F400004870479C4200207047000007B5044BDB
:106304000093044A402300F032F803B05DF804FB24
:106314001D630200692100202DE9F84389461446D3
:10632400B2B10F4B0F4E0325002743F0010822465C
:1063340009EB0701002004F0A3FA0744241A48B922
:1063440033782BB14FF47A40C047013D02D1357008
:10635400BDE8F88301233370002CE8D1F8E700BFCF
:1063640070DB020068210020704704F0BDBAF0B56C
:1063740095B01C46164608460D4601F084FE1A9B4D
:106384000D93CDE9086400242346082205A9284674
:106394000A948DF82C400C9401F0B1FE079B0293F3
:1063A400BDF81830ADF80C30BDF81A30ADF80E3029
:1063B4009DF814308DF8114003F00302012A1DD119
:1063C400BDF81440059EC3F3C203C4F383148DF8CF
:1063D4001030A20008230EA9284601F090FEC6F34F
:1063E400952608AB0093224602AB0EA9304600F076
:1063F40087FB284601F04BFE15B0F0BD022AF8D108
:10640400BDF81640C3F3C203A4098DF81030082761
:10641400082C264628BF08263B4632460EA92846A5
:1064240001F06DFEA41B08AB02AA31460EA8374446
:1064340000F0CAFB002CEBD1DBE7000010B5054CE3
:10644400FFF793FF0421204600F0CAFA0123637288
:1064540010BD00BF44200020037813F0030F03F0A5
:10646400040202D012B910467047B2B103F003031C
:10647400012B03D0022B09D0012070470A68008841
:106484000232C0F3831002440A60F5E70B684288C5
:10649400023303EB92130B60EEE70B68428801337F
:1064A40003EB92130288F4E72DE9F04F89B0054617
:1064B400861C08A8484C019200230F4600F8113DA1
:1064C40001F098F923683B60D4E90123134422685E
:1064D40001339B1A04F21C4704F5836A04F214483E
:1064E400B3421AD3019A0023002A6DD0012262F329
:1064F400010343F0040365F389132168A2689DF83E
:106504000F000A4003320E4444F82230266001F0A2
:1065140095F9012009B0BDE8F08F0121384601F05A
:1065240025FA504601F038FA404601F035FA0DF1EB
:1065340020096068D4F808B049F8100D00EA0B008F
:10654400033004EB80004946FFF786FF049BB0B993
:106554000BEA030204EB8202D16805919A1C013311
:1065640003EA0B0B04EB8B0C01F00303012B0492E5
:10657400DCF80CB020D0022B04D083460BE00BEAED
:106584000300DDE7BDF816309B0903334FEA1B4BCC
:1065940002EB93030493404601F001FA08B1049B13
:1065A40063605946384601F0E1F9D4E90123134404
:1065B400226801339B1A93E7BDF81430C3F38313A5
:1065C4004FEA1B4B1344E5E7022262F3010343F055
:1065D400040365F39F5390E77C22002008B50E4B1B
:1065E4000E48FF229A600022C3F81824C3E900224F
:1065F400C3F8142483F8202401F0FEFC38B9084AB7
:10660400084B09499B1ADB0802469A4200D108BD8F
:1066140021F822200132F8E77C220020E8DA020087
:1066240060DA0200E8DA02000020002030B50B4CEA
:1066340079B10B4A0B49121BD20800239A4201D1AB
:10664400002030BD01EB83056D88854202D0013303
:10665400F4E7034654F83300F3E700BF60DA0200BE
:10666400E8DA020000200020094B013903EBC000E6
:10667400032909D8DFE801F00A0204060420704760
:1066840000797047407970470020704702207047B6
:1066940060DA0200034BD3E90030C31A5842584170
:1066A400704700BF7C2200202DE9F04387B0FFF73C
:1066B400F1FF0746002840F0F5807B4DC5F818042B
:1066C400BFF34F8F6868AC680DF1180848F8100DD7
:1066D4002040033005EB80004146FFF7BDFE029BDE
:1066E400064600285FD104EA0302991C013305EB36
:1066F4008202234005EB8303D268DB68049302F033
:106704000303022B0392029162D1BDF80E30674855
:106714004FEA9318B8F1500FC14628BF4FF0500903
:1067240069F38F1309F10801ADF80E3001F07CFC18
:106734000746002800F0A48001F0A5FC334603A915
:106744000822384601F0B2FC029924EA0106013617
:10675400B600B14535D95FFA89F97EB3F6B2A9EB33
:106764000609214003315FFA89F4B146504E05EB26
:10677400810108234A46384601F098FC36B109F1F4
:10678400080322463146384601F090FC029B08F18A
:10679400030803EB98030293D5F81834002B4AD16D
:1067A400D5F8104458E02A689A4204D86A603846FA
:1067B40007B0BDE8F08304EA03008AE73C493446A5
:1067C400D7E72140033108234A4605EB8101DAE784
:1067D400012B55D1BDF80C303448C3F3831106297D
:1067E40028BF062161F3891302318900ADF80C300A
:1067F40001F01AFC0746002842D001F044FC33465D
:10680400082203A9384601F051FCBDF80C20C2F35C
:106814008312B31C96424FEA8303BDD202994A1CE9
:1068240021400331029205EB81010422384601F034
:106834003DFC0136E9E7384601F029FCFFF72AFF61
:1068440080F00100C7B2B2E7637A23B12368394606
:106854001B68204698476468002CF5D1384601F03F
:1068640016FC06A800F8114D00F0C4FFD5F8183442
:106874000BB9029B6B609DF8070000F0DFFFDDE7BA
:10688400D5F8104444B90B4B0B491888000440F068
:10689400020000F06BF8D1E7236820469B68984714
:1068A4006468EFE7002782E77C220020E8DA020030
:1068B400882200201420002084DB02002DE9F74FF9
:1068C400284C80460F46924601A9012218469B4651
:1068D400D4F80890FFF7E8FD88B3019D0026A91CB1
:1068E4005E4506EB010234D100211F4801F013F884
:1068F40080F310006A1C02EA090204EB820200041D
:1069040005EA0903033340EA1840D06014F8232051
:1069140068F3C50204F8232034F8232066F38912AF
:1069240024F8232054F82320012167F39F2244F8FC
:10693400232061F301026FF3820204F8232094F808
:1069440020341BB1FFF7B0FE0028FBD103B0BDE833
:10695400F08F09EA020204EB82025AF82630D3606F
:106964000136BDE77C2200209826002000231A4629
:10697400FFF7A4BF13B502AC012344F8042D22464B
:10698400FFF79CFF02B010BD07B5CDE90023022339
:106994006A46FFF793FF03B05DF804FB7FB5CDE9CA
:1069A4000123089B0393099B04930A9B059301AA63
:1069B4000523FFF783FF07B05DF804FB7FB5CDE93E
:1069C4000023089B0293099B03930A9B04930B9B4C
:1069D40005936A460623FFF771FF07B05DF804FBD1
:1069E4000F4A30B5D2F810440023214641B903724E
:1069F400D2F810444CB9C2F810044160184630BDB6
:106A04000D7A9D4205D04968F0E762684260606093
:106A1400F4E701330A2BE8D14FF0FF33EEE700BF70
:106A24007C220020084A38B50123D2F8104482F8A9
:106A340020341D4604B938BD2368657220465B685E
:106A440098476468F6E700BF7C220020037A052B90
:106A540010B50C460FD0437A23B1084A08492046A2
:106A640000F0FEFF0749204600F0FAFF2046BDE88B
:106A7400104000F0EABF002AF8D0F3E7DFDB0200A1
:106A8400E4DB0200B2E50200C38873B504460D4698
:106A940033B1144A00921449144A284600F0E0FF26
:106AA400217A05291CD0637A4BB1A088FFF7DCFD5D
:106AB4000F4B104953F82020284600F0D1FF227ACA
:106AC4000D4BA08853F822600021FFF7AFFD0B495E
:106AD40003463246284602B0BDE8704000F0C0BF0D
:106AE40002B070BDDFDB0200EFDB0200E7DB020077
:106AF400ACDB0200E4DB020014DC020007DC020071
:106B04002DE9F04385B01F460C9D002306460C4634
:106B1400904695F80C902B7329463846FFF7B4FF3E
:106B2400B8F1060F09D8DFE808F00412181F28335B
:106B340040003146284600F093FF0022294638469B
:106B4400FFF784FF85F80C9005B0BDE8F083226858
:106B54003146284600F084FFEFE7D4E900233146AC
:106B6400284600F07DFFE8E7A36800933146D4E9A6
:106B74000023284600F074FFDFE7E3680193A3686D
:106B840000933146D4E90023284600F069FFD4E796
:106B940023690293E3680193A36800933146D4E91F
:106BA4000023284600F05CFFC7E763690393236969
:106BB4000293E3680193A36800933146D4E9002368
:106BC400284600F04DFFB8E708292DE9F84F804624
:106BD4000E4617461C4636D8002593F80C901D73B4
:106BE40019461046FFF750FFDFF87CA0DFF87CB0B1
:106BF400AE422AD918F805205946204600F030FF45
:106C04000135082DF4D11649DFF864B0204600F0B0
:106C140027FF0025AE421DD918F805A0504606F0FE
:106C2400A5FC002814BF52462E225946204600F0E7
:106C340017FF0135082DEDD1012221463846FFF713
:106C440005FF84F80C90BDE8F88F5146204600F00B
:106C540007FFD5E70349204600F002FFE9E700BF3C
:106C6400DADB0200D8DB0200D6DB0200D0DB020054
:106C7400DCDB02002DE9F04F3B4F89B000263B4B93
:106C84001B78F5B2AB4202D809B0BDE8F08F384B9F
:106C9400196811F835000124A0F12002C0F1200385
:106CA40004FA02F924FA03F349EA0309D7E90023B1
:106CB40004FA00F8CDE9042302EA080203EA09030E
:106CC400134301EBC50B4CD0DDE9042322EA08028F
:106CD40023EA0903C7E90023079101F077FF079925
:106CE400844611F83500A0F12002C0F1200324FAF3
:106CF40003F304FA02F21A4304FA00F300931D4B5F
:106D04000192DDE90045D3E9002314401D402246E9
:106D14002B465FFA8CF40025CDE90445049CA0F1D0
:106D24002005AC400394049CC0F1200124FA01F135
:106D3400039C0C430499039481400291DDE90245CC
:106D4400AB4208BFA2420CD19BF801104B1E594222
:106D54005941A1EB0C02DBF804305142514103B11B
:106D6400984701368BE700BFD0260020A0260020DC
:106D7400D8260020C82600202DE9F84F06462448CE
:106D840000F006FC002841D10123A6F12001C6F140
:106D9400200203FA01FB23FA02F203FA06FA1D4B5E
:106DA400D3E900014BEA020B00EA0A0801EA0B09E5
:106DB40058EA09021F4623D1304601F007FF164B5B
:106DC400B8B1D3E9000140EA0A0441EA0B05C3E97A
:106DD4000045D7E900234BEA0305104B0C4819681A
:106DE4004AEA0204C7E900450022BDE8F84F00F072
:106DF4008BBBD3E9000120EA0A0421EA0B05E6E78C
:106E040020EA0A0421EA0B05C3E90045BDE8F88F2E
:106E1400A8260020D0260020C8260020A426002072
:106E2400042A2DE9F34105460C4616463AD901F0E9
:106E340095FDD8B11C4B1D491D601D4BDFF88480A6
:106E44001C701C4B00221E600023C1E900231A4958
:106E5400C1E90023013CE4B200260327FF2C0CD136
:106E6400164A1748002100F03DFB03E001F03EFD07
:106E74000028DFD002B0BDE8F08123B205EBC302E5
:106E840001A992788DF8052015F833008DF8066075
:106E940042468DF8047001F0DBFD013CE4B20028A9
:106EA400DCD0E7E70720E5E7D8260020C826002045
:106EB400A0260020A4260020D0260020796C020001
:106EC4007CDC02007D6D020070B5084D084E002484
:106ED4002B789C4201D3002070BD3368012113F844
:106EE400340001F02DFE0134F2E700BFA02600209B
:106EF400D82600201FB50021039001AA44F2010006
:106F0400CDE9011100F004F805B05DF804FB0000C0
:106F14002DE9FF4106468846154672B6FFF782FD05
:106F2400FFF7C2FB0028FBD12A4F3C8841F2010342
:106F340024049E4244F0010434D007D8012E14D016
:106F4400424625492046FFF715FD12E044F20103AD
:106F54009E4229D044F202039E42F1D12B886A68F2
:106F64001E492046FFF710FD03E01D492046FFF7A8
:106F7400FDFC1C4B1B68DB0700D500BE38881A4992
:106F8400000440F00200FFF7F1FCBFF34F8F1749F4
:106F9400174BCA6802F4E0621343CB60BFF34F8F10
:106FA40000BFFDE71349E1E7AE68304601F042F95E
:106FB4002B68CDF8088001936B6800930E49034653
:106FC40032462046FFF7EAFC38880C49000440F0BA
:106FD4000100CCE71420002013DD0200BFDC020016
:106FE40080DC0200F0ED00E02BDD020000ED00E0AB
:106FF4000400FA059DDC0200D9DC0200FFDC02007B
:1070040049B152B1531E1A4007D182600160838096
:10701400C260104670470E2070470920704710B5B3
:107024008468C2688388121B934208D3C2681340E1
:107034000268D154C3680133C360002010BD04202A
:10704400FCE78268C3689A420AD082688388134046
:107054000268D35C0B70836801338360002070473F
:1070640005207047C368836000207047094A53783D
:1070740091780133DBB2994208BF00231178994219
:107084001FBF03705078182303FB002014BF043083
:1070940000207047DC26002073B5054602A80024B2
:1070A40000F8014D0E4600F0A5FB0DF10600FFF7B8
:1070B400DDFF90B106700A4B9DF8062045605A70BA
:1070C4009DF8070000F0BAFB24B9064B4FF4801278
:1070D400C3F80021204602B070BD0424F0E700BFCD
:1070E400DC26002000E100E0024B4FF43C6043F05A
:1070F4000103184740DD020038B50C4B0C4C4FF42B
:107104000032C3F8802001254FF48033C4F848339B
:10711400C4F808336560FFF7E7FF064BA560002459
:107124001C60FFF7E1FF044B1C7038BD00E100E078
:1071340000100140F8270020E9270020F8B51F4B74
:107144001F491B680025C1F84051C1F84451C1F8DA
:107154004851C1F84C51C1F80051C1F804514BB326
:10716400D1F8044517490968641A24F07F442F466E
:107174001A68A24209D8A41A15441A7CDE691AB105
:107184001F74D3E905209047AEB90F4B0F4A197805
:1071940013788B4205D10133DBB2022B08BF0023E5
:1071A400137012780A4B43F822500A4B4FF48012A2
:1071B400C3F80021F8BD3346DAE700BFFC270020FE
:1071C40000100140F8270020F4270020F5270020B4
:1071D400EC27002000E100E02DE9F74F9E4A9F498B
:1071E400137809789E4D99423CD00133DBB2022BCF
:1071F40008BF002313709B4912789B4B0F6853F808
:1072040022003B1823F07F4300220B602B681646B4
:107214001446944613B942B12B6006E019688142C2
:107224000ED902B12B60091A19604FF001082B68BE
:10723400DFF83CA200930027BEB9DFF83CB260E05F
:10724400401A0C44D968C3F800C0D3F81CE031B12B
:107254003A1922F07F42C3E90121DE611E46012270
:107264007346D7E70026B046E1E73446F6697D4A1F
:1072740063681268DFF804C2A068991A21F07F419C
:10728400614500F2A58001442160012222742A682C
:107294000023C4E90133E361002A40F0A2802C609A
:1072A400CAE75A1C9BF80210D2B291428BF8002014
:1072B40004BF00228BF80020182202FB03B32A68C3
:1072C40019799C68022974D003297ED0012918D128
:1072D400217CB1B9DA6862601A69A2605A699B6953
:1072E400A361624BE2601B78002BC0D06160BEE7F3
:1072F4009C4200F093809946DB69002BF8D100236F
:1073040023749BF800309BF801209A42C9D12B6862
:107314002FB9009A934202D1B8F1000F43D0002B49
:1073240079D0D3F800A0524D4E4BD5F804751C68A3
:10733400DFF84C813E1B98F8003026F07F46033678
:107344009BB94FF48033C5F84433C5F80433494B33
:107354004FF400324FF00109C3F880211A60C5F8D8
:107364000090FFF7C1FE88F80090B2452CBF54444A
:10737400A41924F07F44C5F84045D5F80435DB1B37
:1073840023F07F43E41B033324F07F44A3420AD950
:10739400D5F80435C5F84035FFF7A6FE354B4FF454
:1073A4000032C3F80021314B00221A7003B0BDE84B
:1073B400F08F13469146A0E71174D2690123002A85
:1073C400FAD1002B9DD02A609BE700231946F6E7EB
:1073D400D31A23F07F43834234BFC31A00232360AC
:1073E40053E721681368994213D8591A1160E2616E
:1073F40055E7091AD8691A4638B10346186888420D
:10740400F7D3401A1860184613462160E061DC6126
:1074140012E71346F2E7FFF76FFEC4E74C450DD1C0
:10742400D3692B6053B90F4801920121CAF808109F
:1074340003600E4B1970FFF757FE019AE169236848
:10744400C9F81C1011B1086803440B602B689A42F8
:1074540018BF012753E700BFF4270020F5270020B9
:10746400FC270020F8270020EC270020E827002034
:107474000010014000E100E0DC260020FEFF7F0058
:10748400E927002008B5FFF737FE104B00200B2238
:1074940018809A700E4B18600E4B18700E4B1870B3
:1074A4000E4B4FF48012E021C3F8802183F81413AB
:1074B4001A6002F18042A2F56F22C2F8080583F82F
:1074C4001113074BD2F804251A6008BDDC260020EE
:1074D400FC270020F4270020F527002000E100E02D
:1074E400F8270020074B9B784BB132B128B10368D1
:1074F400187C20B959745A617047072070470820D6
:10750400704700BFDC2600202DE9F7431D4FBB78F0
:1075140005460E4690469BB390B304292ED9436981
:1075240073B3437C02A80024012B00F8014D0CBF67
:107534008946A14600F05EF90DF10600FFF796FDBD
:10754400D0B101230370104B4560D3F80435C0E972
:107554000498C0E902369DF806307B709DF8070058
:1075640000F06CF924B9094B4FF48012C3F80021E0
:10757400204603B0BDE8F0830424EFE70724F7E7CF
:107584000824F5E7DC2600200010014000E100E0BB
:10759400064A92783AB130B1426922B100220274AB
:1075A4000221FFF779BD0820704700BFDC260020C8
:1075B4000648074A03780749D35C012213B1043013
:1075C40002F012B80C3001F0F1BD00BF50200020D1
:1075D40080280020282800200648074A0378074905
:1075E400D35C012213B1043001F0AEBF0C3001F0C2
:1075F40087BD00BF502000208028002029280020BB
:1076040037B50578012D04D035D3022D28D003B029
:1076140030BD43681F4C19782046FFF700FD78B150
:107624001D4B01908DF800501B6868469847A1686F
:10763400E368A2885B1A9A420ED3FFF7B9FFE6E724
:10764400A268E3689A42F2D002AB134A03F8080D29
:10765400126818469047EAE7104B01221A70D6E7E1
:10766400C36801938DF80050FFF7A2FF0A4B1B6813
:1076740068469847CBE70A490A48FFF7E2FC10B985
:10768400FFF7AAFFC3E702A8032300F8083D024B53
:107694001B68EEE70428002000280020142800209E
:1076A4002928002018280020F0B51F46234B89B054
:1076B40006461A600C4600293DD08A88204809688D
:1076C400FFF79EFC002834D1A289A1681D48FFF76A
:1076D40097FC00282DD11C4D0FCD6C460FC495E8A6
:1076E4000F0084E80F0073690693337C174A184827
:1076F4008DF81C70003318BF01238DF81430737C8F
:10770400002B14BF0E2300238DF81530F368029369
:10771400B36803933368019369467368009301F077
:1077240019F830B90B4B18703368013301D0FFF7E7
:107734003FFF09B0F0BD0720FBE700BF0028002091
:10774400042800201828002048DD020005760200E5
:10775400502000201428002008B50548FFF782FCBB
:1077640020B90448BDE80840FFF77CBC08BD00BF51
:10777400042800201828002070B5084C0146084849
:107784002678FFF75EFC054636B100232370FFF729
:107794000FFF08B1FFF7AEFB284670BD1428002088
:1077A4000428002010B501460E48FFF738FC0446B3
:1077B400A8B90D480D4A0378D35C63B1043001F0D5
:1077C40007FF60B90A490748FFF73BFC38B9BDE831
:1077D4001040FFF701BF0C3001F0DCFCF1E720465C
:1077E40010BD00BF18280020502000208028002051
:1077F4002928002070B5EFF3108672B60C4A9468FD
:1078040001239CB993600B4B0B4DD3F88010294096
:107814001160C3F88050D3F8841051604FF0FF32E8
:10782400C3F88420047006B962B670BD0370FAE729
:107834002C28002000E100E0FC06FFBD084B9A68FC
:1078440010B55AB150B9EFF3108172B6054A1C68ED
:1078540014605C685460986001B962B610BD00BFE2
:107864002C28002000E100E037B550E8023F1FFA61
:10787400A3F5C488A54202BFBFF32F8F00220DE0F9
:10788400C48925448489A54228BF2D1BC3EA054524
:1078940040E80254002CE8D14FF001028DF8032097
:1078A4000193019B9DF803200B6002F0FF0322B1BA
:1078B4004B880068184403B030BD1846FBE70A88BB
:1078C4004B889A4209D150E8022FC2EA224240E88A
:1078D4000223002BF7D1012070470020704701F0EC
:1078E4001F024B090121914000EB830000F01DB8F9
:1078F40001F01F0301229A404B0900EB8300D1439E
:1079040000F029B84B0901F01F0150F82300C840CA
:1079140000F00100704750E8002F0B4640E8003C9F
:107924009CF0000FF7D11046704750E8003F43EA3F
:10793400010240E8002C9CF0000FF6D1104670477D
:1079440050E8002F02EA010340E8003C9CF0000FDD
:10795400F6D11046704750E8003F03EA010240E8C0
:10796400002C9CF0000FF6D11046704750E8003F01
:1079740003EB010240E8002C9CF0000FF6D1104606
:10798400704750E8003FA3EB010240E8002C9CF054
:10799400000FF6D1104670470121FFF7C6BF002142
:1079A400FFF7CEBF10B590B1D0E9012301689B1A4F
:1079B400DBB20A60013BDBB2FF2B026802D100207C
:1079C400107110BD11684C1C14600B70F2E70E208E
:1079D400F7E737B5054602A8002400F8014DFFF784
:1079E40009FF2A686B68116899420ED9481E106015
:1079F40011F8014CEB68A98A01FB0434AB681179D6
:107A04001B1ADBB2994238BF13719DF80700FFF7C8
:107A140015FF204603B030BD37B5054602A8002344
:107A240000F8013D0C46FFF7E5FE2A681368591C6F
:107A34001160E968641AA98AB4FBF1F41C709DF81A
:107A44000700FFF7FBFE03B030BD826810B50446A3
:107A54002AB143690168006998470023A36010BDF7
:107A64000EB403B5039929B102AA04AB42F8043D4C
:107A740000F06AF802B05DF804EB03B07047826866
:107A840030B40468551C8560A154D0E901329A428F
:107A940002D330BCFFF7D9BF30BC70472DE9F84F93
:107AA4009946DDE90A431746824688460A46012676
:107AB400BA420FD24E4538BF4E4613F0010B01D1E6
:107AC40064B900240125B9F1010F1AD909F1FF396C
:107AD4007D43F8E7B2FBF7F20136E9E79B070ED5E1
:107AE400B9F1000F0CBF30252025A642EAD2013C93
:107AF40029465046FFF7C3FF002CF6D1E1E72025C5
:107B0400F3E7B8FBF5F39F42E2D9DFF83890B8FB0E
:107B1400F5F3504619F8031005FB1388FFF7AFFF80
:107B2400B5FBF7F5002DF2D1BBF1000F02D00CB17B
:107B3400A64201D3BDE8F88F20215046013CFFF74F
:107B44009EFFF4E768DD02002DE9F74F05469046F5
:107B54000E46002900F03A8116F8011B002958D07E
:107B6400252940F0D180002702E047F0010716469E
:107B7400324612F8013B2D2BF7D0302B04D02B2B9F
:107B840005D147F00407F2E747F00207EFE70024C6
:107B94002A2B06F101021BD1D8F80030191D1B68ED
:107BA400C8F800101C44164633782E2B1CD101361D
:107BB4004FF0000A314611F8012BA2F130000928D8
:107BC40014D80A2303FB0A23A3F1300A0E46F1E773
:107BD40012F8013CA3F130010929E5D80A2101FB7F
:107BE4000434303C1646D3E74FF0000A324612F80C
:107BF400011B01F0FB0068281646F8D0692916D04D
:107C040054D8582970D00ED825297DD03378002B2C
:107C1400A2D12B7B002B00F0D980284603B0BDE80D
:107C2400F04FFFF712BF632968D06429EED1D8F86A
:107C34000020D2F80090111D89EAE972C8F80010FA
:107C4400A2EBE9724FF0010B092A61DCD34538BF7E
:107C5400D3462CB1B9F1000F01DB790700D5013C03
:107C6400BA0702D5BAF1000F04D0FB0702D4002CE6
:107C740054D10024B9F1000F58DAC9F100092D21BB
:107C84002846FFF7FCFE07F00302022A05D1BAF1E9
:107C9400000F02D1002C4DD10024CDE900475346FA
:107CA4000A2249462846FFF7F9FEAFE7732954D064
:107CB40016D87029AAD1D8F800301A1DC8F80020A7
:107CC400302128461C68FFF7DAFE78212846FFF7A2
:107CD400D6FE00220823CDE9003221461022E1E736
:107CE40075292FD0782991D1D8F800100A1DC8F829
:107CF4000020CDE90047534610222CE0D8F800308C
:107D04001A1D1978C8F800202846FFF7B8FE7DE749
:107D14000A230BF1010B92FBF3F295E7A345A9D2D9
:107D240020212846013CFFF7AAFEA0E77807AAD540
:107D34002B21A5E7A345B0D230212846013CFFF70B
:107D44009EFEA7E7D8F80010CDE900470A1DC8F841
:107D5400002053460A220968A4E7D8F800301A1D07
:107D6400C8F80020F907D3F8009012D54F46A7EBC6
:107D7400090B17F8011B41B9A345BFF447AF2021F4
:107D84002846013CFFF77BFEF6E72846FFF777FE1F
:107D9400EDE7B9F1000F17D0484605F0F8FD0746A6
:107DA400BC4200D954B909F1FF3919F8011F00295F
:107DB4003FF42CAF2846FFF762FEF6E72021284661
:107DC400013CFFF75CFEEBE74F46E9E703B0BDE893
:107DD400F08F00002DE9F04108B10368C3B90E4EDD
:107DE4000E4B14229B1B0024B3FBF2F3374602FB19
:107DF40003F5A54201D1002008E03B5930190BB925
:107E04001434F6E7DB6998470028F9D0BDE8F0811F
:107E1400DB69BDE8F04118474420002044200020DD
:107E240029DF704728DF704770B503689D6886B006
:107E340004460E466DB114220021684605F052FD39
:107E4400A3680593237901962BB1012B0DD06846C5
:107E5400A84706B070BD01238DF800302369029352
:107E6400E368039363690493F1E702238DF8003018
:107E7400E3681B030293F5E7034B187A0122B0FA77
:107E840080F05A74400970473828002070B5244D9A
:107E9400244E2B7A2C463BB923492448FFF7E4FCB3
:107EA400306008B9686070BD0223237233681A79A0
:107EB40072B1012A24D018460321FFF7B5FF00232D
:107EC4002372636018491948BDE87040FFF7F7BC96
:107ED400D3E90520121AB2F5805F28BF4FF480520F
:107EE400D3E903159208012A014438BF012228442A
:107EF400FFF796FF50B11128DDD101232372D2E799
:107F0400D3E903021044FFF78DFFF3E7237C002B32
:107F1400C9D10146BDE87040022000F009B800BF95
:107F240038280020502800204C28002064200020FD
:107F340038B5831E012B45D8234C237A002B41D01E
:107F4400022B09D1032830D0204B1B680022E260A9
:107F54001A793AB1012A22D0637C7BBBBDE8384050
:107F6400FFF794BFD3E905128D1AB5F5805F94BF6E
:107F7400521902F580529A619142EDD102284FF0D4
:107F8400000308BF19462372104B18BF0D2118684F
:107F9400FFF74AFF0E490F48FFF791FCDCE71A6927
:107FA40001321A615B699A42E7E7E3680133082BFF
:107FB40001D8E360D0E70023E360DFE7BDE83840A1
:107FC40005F04EB838BD00BF3828002050280020E6
:107FD4004C2800206420002000F0FD03012B08D170
:107FE400044B00225A74421E504250411874FFF749
:107FF4004DBF704738280020FFF7D4BCF8B5467948
:108004000146721E0546002393422D6803D30024C3
:10801400A64202D8F8BD0133F6E70F682846FFF7F9
:10802400FBFC01343946F3E72DE9F843868ACD1C7D
:108034000746FFF7CEFC043E35440446B5FBF6F58F
:10804400F0B14FF48073EDB28380C680013D0760C8
:1080540081464FF00008A84512D23846FFF7B9FC14
:10806400064648B163790133637108F10108C9F820
:10807400000007608146EEE72046FFF7BFFF344665
:108084002046BDE8F88301210430FFF76FBC10B52A
:10809400012104460430FFF774FC10F0FF0F04D1F3
:1080A4002046BDE81040FFF7A9BF10BD2DE9F843F5
:1080B400C7880546181D8846B0FBF7F4164607FB2B
:1080C40014003CB9A7EB0009B14528BFB14626B955
:1080D400BDE8F8832D68013CF3E70430A6EB0906FC
:1080E4004A4608EB0401284405F0D3FBB7424C444C
:1080F4002D68B9464FF0000028BFB146E7E72DE9E7
:10810400F843C7888846191D0546B1FBF7F416469F
:1081140007FB14113CB9A7EB0109B14528BFB146CF
:1081240026B9BDE8F8832D68013CF3E704312944FE
:10813400A6EB09064A4608EB040005F0AAFBB74281
:108144004C442D68B9464FF0000128BFB146E7E71B
:1081540041DF7047064B10B500241C70054B1C60B2
:10816400BFF35F8F0449054800F030F8204610BD86
:108174005C2800206028002094DD020054280020A0
:1081840007B502A8002300F8013DFFF733FBF1EE29
:10819400103A23F09F03E1EE103ABFF35F8F0A4BCE
:1081A4004022C3F884219DF80700FFF747FB04F041
:1081B40067FF20B1FFF7CCFF03B05DF804FB20BFDD
:1081C40040BF20BFF8E700BF00E100E00B684A6849
:1081D4004360934208BF0023016008BF43607047B7
:1081E400436843B10268916852680B449342436008
:1081F40004BF0023436070470D4930B5A1F5947264
:108204000225914201D800200EE08B1ADB1093FB6B
:10821400F5F302EBC30452F83330834205D802D29B
:1082240004F10802EDE7606830BD2146E9E700BFCC
:10823400E4DE020008B5FFF7DFFF024B002808BFA9
:10824400184608BDA9DD02000C4B1B78062B10D183
:108254000B4B1B681A070CD10A4B186800F0F0038B
:10826400302B08D000F0E000A0F140035842584100
:108274007047002070470120704700BFE00F00F0F6
:10828400E40F00F0E80F00F0094B1B78062B0CD12B
:10829400084B1B681A0708D1074B186800F0F00058
:1082A400A0F130035842584170470020704700BF86
:1082B400E00F00F0E40F00F0E80F00F008B5FFF75E
:1082C400C3FF28B1604B614A1B68C3F304231360E6
:1082D400FFF7DAFF10B15E4B5E4A1A60FFF7B4FF96
:1082E40028B15D4B5D4A1B68C3F342331360FFF74B
:1082F400CBFF20B15A4AD36823F08073D360FFF7D1
:10830400A3FF40B14FF080430022C3F80C21C3F80F
:108314001021C3F83825FFF7B7FF10B1514B0322E2
:108324001A60FFF7B1FF40B14F4B05221A600122DA
:108334009A6700229A603F225A604C4B1B78062BA6
:1083440050D14B4B1B6819074CD14A4B1B6803F0A7
:10835400F003502B46D14FF08052474BD2F804140F
:10836400C3F82015D2F80814C3F82415D2F80C1455
:10837400C3F82815D2F81014C3F82C15D2F8141425
:10838400C3F83015D2F81814C3F83415D2F81C14F5
:10839400C3F84015D2F82014C3F84415D2F82414B5
:1083A400C3F84815D2F82814C3F84C15D2F82C1485
:1083B400C3F85015D2F83014C3F85415D2F8341455
:1083C400C3F86015D2F83814C3F86415D2F83C1415
:1083D400C3F86815D2F84014C3F86C15D2F84424D5
:1083E400C3F87025FFF730FF28B1244B244A1B68DB
:1083F40003F04F031360FFF727FF48B14FF08043AA
:10840400D3F80024D20744BF6FF00102C3F800245C
:108414001C4B1B68062B08D11B4B1B68062B01BF8A
:108424001A4A136843F480631360194AD2F88830F7
:1084340043F47003C2F88830BFF34F8FBFF36F8FDC
:10844400144B154A1A6008BD24030010403501403E
:1084540074C007400DF0ADBA440200103C05004062
:10846400F0ED00E0A005004010560040E00F00F0E1
:10847400E40F00F0E80F00F000C0004058020010C4
:10848400E40E004030010010340100103C1700409D
:1084940000ED00E0782000200090D003054A4FF062
:1084A400A043105CD3F8043523FA00F0C04300F075
:1084B40001007047A2E20200044B1A5C01239340BE
:1084C4004FF0A042C2F80C35704700BFA2E2020090
:1084D400044B1A5C012393404FF0A042C2F80835C4
:1084E400704700BFA2E2020008B50020FFF7F0FFCA
:1084F4000120FFF7EDFF0220FFF7EAFF0320BDE8AC
:108504000840FFF7E5BF08B50020FFF7D5FF0120BD
:10851400FFF7D2FF0220FFF7CFFF0320BDE808409A
:10852400FFF7CABF074A4FF0A041105CD1F80435E9
:108534000122824022EA03001340C1F80805C1F871
:108544000C357047A2E20200054A4FF0A043105CCC
:10855400D3F8103523FA00F0C04300F0010070474F
:108564009EE202000D2809D00E2809D00F2809D058
:1085740010280CBF03204FF0FF30704700207047D5
:108584000120704702207047014B185C704700BF00
:108594009EE20200C20708B501460CD54FF0A04385
:1085A4000322C3F84427C3F84827C3F84C27C3F869
:1085B4005027FFF799FF8B070AD54FF0A0430C22F1
:1085C400C3F83427C3F83827C3F83C27C3F8402737
:1085D40008BD000038B5084C04F10803054600281E
:1085E40018BF1C4623682BB11A6822605B682846B2
:1085F4009847F7E738BD00BF6C28002020B9054B29
:1086040001225A70FFF7E6BF012802D1014A907097
:10861400F8E770476428002020B9034B01225A7000
:10862400FFF7D8BF704700BF6428002038B50B4C53
:10863400237883B90A486360A3602361E36000F090
:10864400D1F8054604F01CFD08B900F0D9F801235F
:108654002370284638BD8525FBE700BF6428002029
:108664000186020037B502A80023094C00F8013D39
:10867400FFF7C0F8E368013BE360E56815B900F073
:10868400D3F8A5709DF80700FFF7D8F803B030BD04
:1086940064280020012813B509D003D303281BD074
:1086A40002B010BD0F4B0122C3F88020F8E702A8E6
:1086B40000230D4C00F8013DFFF79CF823780BB91B
:1086C400FFF7B4FFE3689DF807000133E36001237B
:1086D400A370FFF7B3F8E3E700F092F8FFF7C2FFE7
:1086E400DEE700BF00E100E0642800201FB5037846
:1086F4008DF8003043680193037A8DF80830C3681D
:108704000393054A054B684653F8213052F821106B
:10871400984705B05DF804FB782800207C280020E9
:108724001FB503788DF800304368019383688DF892
:108734000830C3680393054A054B684653F8213053
:1087440052F82110984705B05DF804FB7828002002
:108754007C280020F0B5194B067891F81DE043F809
:108764002620174B94460A6943F82620154B03F834
:1087740006E00C4607460FCC89B06D460FC594E859
:108784000F0085E80F000496BEF1000F0AD0BCF17B
:10879400000F0D4A694608BF0022381D00F00CFE88
:1087A40009B0F0BDBCF1000F084A694608BF0022B9
:1087B40007F10C0000F0E4FBF2E700BF7C28002086
:1087C4007828002080280020F186020025870200F6
:1087D40000F18040002382B0036003680193019B91
:1087E40002B07047054A13792BB901211060117149
:1087F4005371184670478520704700BF84280020B5
:10880400084B1A68D20706D4E02283F80023012219
:10881400C3F880211A604FF080430122C3F8182561
:10882400704700BF00E100E0044B01221A604FF0E2
:108834008042D2F81834DB03FBD470470C000040AC
:10884400124B1B6810B573B14FF48070FFF7C0FF73
:108854004FF080430122C3F808230D4B587910B917
:108864005A711B6898470B4B1B6873B14FF48270A5
:10887400FFF7AEFF4FF080430222C3F80823044BF6
:1088840001201B68BDE81040184710BD00010040DE
:10889400842800200401004000F1804000F5C0401D
:1088A400002382B0036003680193019B02B0704708
:1088B400800000F1A040D0F8003723F44033C0F822
:1088C4000037D0F8003743EA0141C0F80017704779
:1088D400054B4FF0FF32072843F8202084BF1B18B4
:1088E40083F84820704700BF8C28002010B5174C2F
:1088F40094F8583043BBFF21E2180133202B82F84F
:108904003010F9D10021C8B2FFF7E2FF01310C2980
:10891400F9D1042200210E4804F0E4FF0D4BE022BB
:1089240083F806234022C3F880214FF4BE701A60F6
:10893400FFF7B2FF084B4FF00042C3F804230123B2
:1089440084F85830002010BD0820FCE78C28002053
:10895400E028002000E100E000600040034B93F8B1
:108964005800003018BF0120704700BF8C28002039
:1089740030B52E4C231893F93020013253D18A7824
:10898400002A4CD0002354F8235001354FEA8302C7
:1089940040D1251802F1804202F5C04285F83030FA
:1089A400002544F82350D2F810550B784C7825F460
:1089B40098151B04240525F4F85504F4801403F4D5
:1089C4004033C2F8105523430402D2F8105504F47E
:1089D400F85423432B43C2F810354A780123012A63
:1089E4004FF0A04203FA00F30CBFC2F80835C2F8F6
:1089F4000C3500F5E073032142F82310C2080C493A
:108A0400012300F0070003FA00F08B5C184388543C
:108A1400002003E00133082BB5D1042030BDFE2231
:108A240083F83020D9E70820F8E700BF8C2800201D
:108A3400E0280020054B184490F930008000C0B2B3
:108A440000F1804000F5C040704700BF8C28002032
:108A5400F0B5394D2C18944694F93040002C68DA5E
:108A64008E78C6F34006002E15BF0023082308277E
:108A74000C27BB4201D10420F0BD55F8232001325C
:108A84004FEA830441D12F1845F823C087F83030CA
:108A940016B9EA1882F848008A78560716D4D70718
:108AA40035D5820002F1A042D2F8006726F0020612
:108AB400C2F80067214FC60800F0070C012202FA31
:108AC4000CF217F806C042EA0C02BA558A780E78FE
:108AD40012F0020224D004F1804303F5C0430002E3
:108AE400D3F8102522F4473222F44072C3F810253B
:108AF4003604D3F8102500F4F85006F44036304319
:108B04001043C3F810050020B6E70133B1E74E78EF
:108B140000F5E0724FF0A047B60047F82260C9E7BD
:108B2400083B2B4493F8500040EA861683F85060C3
:108B3400E9E70820A0E700BF8C280020E0280020F7
:108B440038B5204C251895F93020072A18DD224421
:108B540092F848309B09032B0DD14FF0A043D3F872
:108B64001035C34013F0010F0CBF02210321BDE8EF
:108B74003840FFF79DBE012B14BF03210221F6E705
:108B8400D3B2072B1CD8930003F1804303F5C043F1
:108B9400D3F8100540F00100C3F8100502F14000BD
:108BA400800080B2FFF778FE51B195F9303054F867
:108BB40023302BB1012303FA02F2034BC3F804233D
:108BC40038BD00BF8C280020006000404FF0A04357
:108BD400D3F8103523FA00F000F0010070470000CC
:108BE4002DE9FF470024584A584E594D019401215C
:108BF4001368A2F5C040012B80B206D1D6F8043325
:108C04000B4202D0FFF748FE0C430432AA424FEA5B
:108C14004101EDD14F4B1B68012B0AD14FF4BE70BB
:108C2400FFF73AFE4FF0A04344F00044D3F8103568
:108C3400019314F0FF0F1AD0474F00250126344248
:108C440010D0AB0003F1804303F5C043D3F8100503
:108C5400D3F8101557F82530C0F30420C1F30141AF
:108C640003B198470135082D4FEA4606E7D1002C99
:108C740066DA00224FF0FF33CDE90223DFF8D89003
:108C84000127002634464FF0A04809EB060393F968
:108C94005020531C45D0D2B222F0C005E90804A8E4
:108CA400084402F0070310F804CC07FA03F31CEAA3
:108CB400030F36D009EB050C92099CF930C059F822
:108CC4002CA0BAF1000F0AD1032A2AD10DF1080E03
:108CD4001EF801C04CEA030C0EF801C001E0032A9F
:108CE400F4D005F5E07110F80C0C58F82110184276
:108CF400C1F3014105D0022913D1032A0BD1114636
:108D040004E003290DD1032A05D102212846FFF7E7
:108D1400CFFD0134E4B2BAF1000F02D01146284667
:108D2400D0470136042EB0D154B14FF0A043019A7C
:108D3400D3F81035934203D00193029B0393A0E729
:108D440004B0BDE8F08700BF00610040006000404F
:108D5400206100407C6100408C280020014B1B688E
:108D6400184700BFE82800200D4B984237B50D4640
:108D740010D102A8002300F8013DFEF73BFD094B8A
:108D84001C7914B901221D601A719DF80700FEF7C1
:108D940055FD14B9002003B030BD1120FBE700BF1E
:108DA40000200040E82800200023435082B04358AC
:108DB4000193019B02B070470A4610B54FF48E71BF
:108DC400FFF7F2FF136A9168C95C136A01331362F7
:108DD400C0F81C1510BD024608B54FF49271006826
:108DE400FFF7E2FF4FF484711068FFF7DDFF1368AB
:108DF40001221A6008BD8B690A4610B54FF48471CC
:108E040023B9FFF7D1FFD0F8183510BDFFF7CCFF19
:108E1400536AD168D0F81805C854536A01335362B1
:108E2400F3E700001FB501238DF80030044BCDE9B2
:108E34000110D3E900126846904705B05DF804FBC1
:108E4400F028002030B54C4AD2F8043313F4007FE4
:108E540085B015464FD0D2F82431002B4BD04FF4B7
:108E640092711046FFF7A0FF4FF40173C2F8083364
:108E7400424B93F8291009B9012151603E4902225D
:108E84008DF80020D1F88024C1F8802403929A69D7
:108E94000292DA6801920022C3E906226846D3E905
:108EA400001290473448D0F81C315BB133490A6A48
:108EB4004B699A420A464BD291F82830002B47D18D
:108EC400FFF77AFF2C4AD2F8443193B14FF4A271E0
:108ED4001046FFF769FF294B93F8291009B10121C6
:108EE40011609A692AB100229A61586AD968FFF719
:108EF40099FF05B030BDD5F804335B07D2D5D5F85A
:108F04000831002BCED01D4C1B482146FFF773FFC0
:108F1400636AA2699A422346C4D1E269E1684AB10C
:108F24002369E3600023606AA261E3616362FFF77F
:108F340079FFB7E794F829200AB901226A600E4A3A
:108F44004FF40170C2F8080300229A61586AEEE7F0
:108F54004FF48E710848FFF727FF51690029B1D0FB
:108F64000023029191688DF80030019153616846A5
:108F7400D2E900139847A5E700200040F02800201C
:108F84002DE9F8435A4B047991462C2202FB043212
:108F9400064692F82A200D469846002A40F0A380FF
:108FA40054490068FFF7E0FE0746002840F09D8022
:108FB40029683368481C0BD04FF0A04001228A4036
:108FC400C0F8082501F5E0724FF0030C40F822C008
:108FD4006868421C1FBF00F5E0724FF0A04C4FF0D0
:108FE400000E4CF822E0AA6995F814C0C3F82425B1
:108FF4006A7DBCF1010F4CEA0202C3F86C25C3F888
:109004001405C3F80C151DD1AA68511C1FBF02F525
:10901400E0714FF0A0404FF0000C40F821C0E96827
:10902400481C0BD04FF0A04C01208840CCF8080518
:1090340001F5E0704FF0030E4CF820E0C3F808157A
:10904400C3F810252C23634308EB0302C2F80490F1
:109054002A6948F80320B9F1000F31D04FF48E711A
:1090640030682D7FFFF7A0FE30684FF4A271FFF740
:109074009BFE3268204BC2F80433120B53B2002B10
:10908400A8BF03F160404FEA53134FEA4511BABF3A
:109094001A4802F00F0500F561404FEA8303C9B294
:1090A40003F16043B4BF415580F8001303F56143F5
:1090B40002F01F02012101FA02F2C3F880211A60B2
:1090C40033680422C3F800252C2303FB0483002205
:1090D400C3E9062283F829205A61012283F82A2051
:1090E4003846BDE8F8830827FAE71127F8E700BFF8
:1090F400F0280020498E02008000020014ED00E0F8
:109104002DE9F843224F06794FF02C0909FB067428
:1091140080466569002D37D16261A16025624FF4F4
:109124008E71006884F82850FFF73EFED8F80000DE
:10913400012383602146FFF73FFE6368A1462BBBF2
:10914400D8F80050226A63699A4212D3D8F80030E2
:10915400D3F81C21002AFBD00122DA6000202C2342
:1091640003FB067600237361BDE8F88394F8283086
:1091740043B9D5F81C31002BF8D049462846FFF7EF
:109184001BFEDFE70F20EAE71120EDE72846EBE7B7
:10919400F02800200379044A2C2101FB0323586999
:1091A400003018BF01207047F02800202DE9F84353
:1091B400384E05792C2303FB056307465C6824B10C
:1091C40003684FF40170C3F808032C2303FB056301
:1091D400986950B1D86900283ED024B13B684FF457
:1091E4000172C3F80423112034E09A61D9605862F3
:1091F400D8612C2303FB056393F829301BB910B9FC
:109204003846FFF7E8FD4FF02C0909FB056838687C
:10921400D8F80430002B34D14FF4A271FFF7C4FD09
:10922400C1463868D0F82431D0F80821D0F8444138
:10923400B2B90CB9002BF4D02C2202FB0565002234
:10924400AA611BBB24BB95F829103B680122B1B16C
:109254001A600020BDE8F8831961DA610120C8E7CB
:10926400002BE9D1002CE7D14946FFF7C4FDD8F81B
:109274002430D8F818209A42D3D82346DCE75A6021
:10928400E7E74FF40173C0F80433E2E70320E1E7B2
:109294000F20DFE7F02800200023435082B043581A
:1092A4000193019B02B070471FB501238DF8003074
:1092B400054B8DF8080001916846D3E900129047E8
:1092C40005B05DF804FB00BF1C2900207FB5384AB7
:1092D400D2F82461002E49D010464FF49271FFF762
:1092E400DBFF02238DF80030D2F88034C2F88034DA
:1092F4000393D2F83C358DF808302E4BDA6801928E
:109304000022C3E906226846D3E900129047284A9E
:10931400D2F8443173B14FF4A2711046FFF7BCFF89
:10932400244B996931B100219961D2F83C05D9687F
:10933400FFF7BAFF1E4AD2F82031ABB14FF4907157
:109344001046FFF7A9FF1B4B596969B1D2F84C15B8
:109354008DF80810002299688DF8002001915A6157
:109364006846D3E90012904704B070BDD2F81031BA
:10937400002BCCD04FF488711046FFF78DFF0D4BB6
:10938400D2F83C0599698842C1D1DC69D96864B1D5
:10939400D2F8005225F02005C2F800521A699C61E7
:1093A400DA60DE61FFF780FFB1E79C61FAE700BF96
:1093B400002000401C2900202DE9F8435E4B06796B
:1093C4009146242202FB0632044692F820200D46E0
:1093D4009846002A40F0AB8058490068FFF7C4FC67
:1093E4000746002840F0A58029682368481C0BD054
:1093F4004FF0A04001228A40C0F8082501F5E07230
:109404004FF0030C40F822C06868421C1FBF00F5EF
:10941400E0724FF0A04C4FF0000E4CF822E0AA6925
:1094240095F814C0C3F824256A7DBCF1010F4CEAF9
:109434000202C3F86C25C3F80C15C3F814051DD13A
:10944400AA68511C1FBF02F5E0714FF0A0404FF015
:10945400000C40F821C0E968481C0BD04FF0A04C28
:1094640001208840CCF8080501F5E0704FF0030EA8
:109474004CF820E0C3F80815C3F8102524237343DF
:1094840008EB0302C2F804902A6948F80320B9F1F2
:10949400000F3BD04FF4887120682D7FFFF7FCFE4E
:1094A4004FF490712068FFF7F7FE4FF49271206833
:1094B400FFF7F2FE20684FF4A271FFF7EDFE226879
:1094C4001F4BC2F80433120B53B2002BA8BF03F195
:1094D40060404FEA53134FEA4511BABF194802F0EE
:1094E4000F0500F561404FEA8303C9B203F16043FD
:1094F400B4BF415580F8001303F5614302F01F0225
:10950400012101FA02F2C3F880211A6023680822BB
:10951400C3F80025242303FB06830022C3E90622A3
:109524005A61012283F820203846BDE8F8830827D1
:10953400FAE71127F8E700BF1C290020D1920200A6
:109544001003020014ED00E001F06043B3F1005F8A
:109554002DE9F041074632D11C4B0679242505FB41
:10956400063598466C6964BB6A61A96000684FF46B
:109574009071FFF791FE4FF4AC713868FFF78CFEE1
:109584003B686A69A968C3F84415C3F848250122F1
:109594009A606A68BAB9D3F82011D3F8582149B946
:1095A400002AF8D00F20242303FB068600237361CE
:1095B400BDE8F081002A14BF0F200020F3E710203B
:1095C400F6E71120F4E72046F2E700BF1C2900204B
:1095D4000379044A242101FB03235869003018BF8E
:1095E400012070471C290020F8B501F06043B3F155
:1095F400005F04460F465ED10379304D242101FB00
:109604000351486820B121684FF40476C1F8086317
:10961400242101FB03539E6956B1D969002939D02D
:1096240020B123684FF40472C3F80423112030E0FE
:109634009A61DF60DE614FF488712068FFF72CFEC9
:109644004FF4A2712068FFF727FE2368C3F834752E
:10965400C3F8382516BB01221A602279242101FBA4
:109664000251496809BBD3F81041D3F84411D3F827
:10967400240114B909B90028F5D0242303FB0255A9
:109684000023984214BF032018469942AB6118BFC7
:109694000F20F8BD1F61DA610126CCE7D3F8002260
:1096A40042F02002C3F80022D7E74FF40472C3F853
:1096B40004230020EDE71020EBE700BF1C29002065
:1096C400034B187810B901221A707047852070472F
:1096D400402900202DE9F74F4FF0000ADFF8989059
:1096E400204E07460425D0465FFA8AFB01240DF17B
:1096F400070004FA0BF48DF80780FEF77BF814EAF0
:10970400090F08D0336814EA030201BF234333600E
:1097140087F800B015469DF80700FEF78FF8D5B915
:10972400114B1249188800045A4640F00300FDF713
:1097340021F90D4B28461C88FEF77CFD240444F0D7
:10974400030403460A4A0B492046FDF71DF928463F
:1097540003B0BDE8F08F39EA04090AF1010AC3D164
:10976400E7E700BF4429002014200020DFE20200C4
:10977400C8E20200F6E20200FFFF01000220FEF749
:10978400D1BE00002DE9F04781460D46FEF7EAFE02
:109794000328044604D8012D04D024D3022D2FD04D
:1097A400BDE8F087194D47003A18A918AE5C4A780D
:1097B40052B1DFF86880164842464FF40041FDF785
:1097C400A3FE08B988F800903B192B449A78114BF2
:1097D4001A55002EE4D0104B1B68002BE0D0304605
:1097E400BDE8F04718470A48FDF7D2FE074B04EBE3
:1097F400440213449E78074B1B5DB342D0D1E8E783
:10980400024B00EB40041C446678E2E7AC290020DC
:109814006C290020C5290020C029002048290020E7
:1098240002210078FFF7AEBF08B5094B1B7853B18E
:109834000020FEF74DFE0120FEF74AFE0320BDE89E
:109844000840FEF745BEBDE80840FEF74DBE00BF28
:1098540049290020F8B5794C237805461BB100232B
:109864002370FFF7E1FF172D00F28480DFE805F095
:109874000C13133F5061727C848984899196969667
:109884009696C0C5CDD5E0E0FFF7CEFF6C4B002423
:109894001C702046F8BD0020FEF700FEF8B1002041
:1098A400FEF716FE022D0CBF4FF4E1614FF47A610E
:1098B400634B1D704FF400404FF4FA740025E0FB35
:1098C40001454FF47A7200232046294603F05CFDDB
:1098D400002201465B48BDE8F840FDF715BEFEF7DF
:1098E400EBFD022D0CBFC8214FF4C871E0E7002046
:1098F400FEF7D4FD40B10020FEF7EAFD4FF44871B5
:109904004F4B03221A70D5E7FEF7D6FDC821F7E7BF
:109914000020FEF7C3FD38B10020FEF7D9FD4FF457
:109924007A61474B0422EDE7FEF7C6FD4FF4C87198
:10993400F7E70020FEF7B2FD48B10020FEF7C8FDAE
:109944003F4B05221A7041F69A110022C2E7FEF736
:10995400B3FDF5E70020FEF7E5FD394B06221A704A
:10996400002240F6CD41B5E70020FEF7A5FD344BBB
:1099740007221A7000248CE701202070FEF7D2FD24
:10998400EEE701202070FEF7CDFD00224FF4804168
:10999400A0E7FEF7B8FD2A4B0C22EAE72A482B4E33
:1099A400FDF7F6FDD5F1110504461CD0D8B9012DFB
:1099B40013D0C8235D434FF400474FF4FA700021DD
:1099C4004FF47A720023C7FB050103F0DDFC224645
:1099D40001461D48FDF798FD04460220FEF76CFD84
:1099E4000123337055E70220FEF772FD0023F8E7E8
:1099F400FFF71AFF124B1222BBE7FFF715FF0020F7
:109A0400FEF75AFD0E4B1322B3E7FFF70DFF0120BB
:109A1400FEF752FD0A4B1422ABE7FFF705FF0020C7
:109A2400FEF74AFD0120FEF747FD054B1522A0E78E
:109A3400FEF769FD024B1D709CE700BFBC290020A6
:109A4400C42900208C2900204C2900204929002009
:109A5400044B1B68DB0703D5034B1878FFF7FABEEA
:109A6400704700BFB8290020C4290020032801D86A
:109A7400FEF76ABD00207047044B1B6813F0010316
:109A840001D0FFF7E7BE1846704700BFB829002091
:109A940038B51C4B18601C4B10F0020405461960C5
:109AA4001AD01A4B1A480E221A700F22DA7010229A
:109AB4009A7111225A72042140F26662FDF7B0F9DC
:109AC400044648B9FDF700FA044628B90146114A8C
:109AD4001148FDF707FD0446EB0711D50120FEF7F9
:109AE40059FD6CB921460D4A0D48FDF7FBFC0446AF
:109AF40030B90C4A0C480121BDE83840FDF7F2BCEE
:109B0400204638BDB8290020C0290020AC290020F7
:109B140014E302002598020038E30200559A02007B
:109B24003CE302008197020034E30200032812D8C8
:109B3400012A0BD1012908D100F10E02D2B200EBA7
:109B440040000C4B1A540020704700220129F6D023
:109B540009D3022901D007207047064B00EB4000CF
:109B640018444270EFE7034B00EB40001844827046
:109B7400E9E700BFAC290020032808B512D8FEF796
:109B840003FD800000F1A040D0F8003723F44033F7
:109B9400C0F80037D0F8003743F44033C0F800373A
:109BA400002008BD0620FCE708B5012202210020A0
:109BB400FFF7BCFF08B1072810D1072202210120BA
:109BC400FFF7B4FF08B1072808D100210A2208468C
:109BD400FFF7ACFF10B1072808BF002008BD000044
:109BE4000388102B10B502D0112B1ED010BD1A4CB7
:109BF4002168B1B901220846FFF798FF08B1072888
:109C040024D1072202210120FFF790FF08B1072881
:109C14001CD1042202210020FFF788FF08B1072885
:109C240014D1236801332360E0E70B4A1368013B36
:109C34001360002BDAD1FFF7B7FF0028D6D0074B0B
:109C44001B68002BD2D0BDE810401847034B1B689B
:109C5400002BE6D09847E4E7D0290020CC29002047
:109C640008B50020FFF788FF08B1062806D10120B7
:109C7400FFF782FF10B1062808BF002008BD0000CE
:109C84000D4B10B518600C4629B10120FFF7EEFE0C
:109C940040B102232370094B1B6853B9BDE810403F
:109CA400FFF782BFFFF7E2FE08B10B23F2E7207053
:109CB400F1E7002010BD00BFCC290020D0290020EE
:109CC4006DDF704776DF70477ADF70477CDF70475F
:109CD4007FDF70478FDF704790DF7047B1DF7047D9
:109CE40067DF704733DF7047FDF704B908B500201C
:109CF400FFF7C2FE08B1FDF7FDF8FFF7B1FF08B1A9
:109D0400FDF7F8F8FFF7EEFF18B1BDE80840FDF7DE
:109D1400F1B808BD08B50B4B0B4819784FF6FE7225
:109D240003F063F830F008020BD020F00202112A8D
:109D340007D043F20142904203D0BDE80840FDF74A
:109D4400D9B808BDD52B00209C2E00200388212BD8
:109D540013B504465ED023D8112B31D0132B61D018
:109D6400102B22D1374B38491888000440F00300E7
:109D7400FCF7FCFD0720FFF77FFE08B1FDF7BAF8FA
:109D8400324BA1883248198001F0B4FD08B1FDF7C7
:109D9400B1F84FF0A0434FF40012C3F80C2504E0CF
:109DA4003B2B08D003D8232B1DD002B010BD522B5F
:109DB40040D0562BF9D11321A088FFF783FF24E06C
:109DC400204B24491888000440F00300FCF7CEFD22
:109DD4001E4B4FF6FF721A804FF0A0434FF400124F
:109DE400C3F80825E1E7174B1B491888000440F025
:109DF4000300FCF7BBFD08220021684603F072FD56
:109E040000226946A088FFF767FF0028CDD0FDF740
:109E140071F8CAE702A9002321F8083D8088FFF7FA
:109E240059FFF2E7094800231A4685210088FFF705
:109E34004FFFEAE7054800231A4619460088FFF752
:109E44004DFFE2E7142000205CE30200FA2000202A
:109E5400E42E002066E3020073E302000C4B4A8800
:109E64001B889A4212D10A8840F677239A420DD170
:109E74008B88084A0849033B9BB21380074A108821
:109E840000041A4640F00300FCF77EBD704700BF93
:109E9400FA200020F820002096E30200142000207D
:109EA40008B503784BB9054B3B211888FFF70AFF27
:109EB40018B1BDE80840FDF71DB808BDFA20002020
:109EC400072808B513D00A280DD0042819D10D4B42
:109ED40013211888FFF7F6FE30F0080311D0BDE80F
:109EE4000840FDF707B8BDE80840FFF7FFBE054B83
:109EF4001A884FF6FF739A4203D1034801F045F9DB
:109F0400EAE708BDFA200020E42D002008B548B196
:109F140003280BD10220FFF7AFFD38B1BDE808409C
:109F2400FCF7E8BFBDE80840FFF7E0BE08BDF0B5A8
:109F3400047893B0DCB9828A0569012A2B7818D198
:109F44008DF80C30FF2340F20F518DF80D30FE23B5
:109F54008DF80A40ADF808108DF80B208DF80E30FE
:109F640002AD285D0134FDF71DFC072CF9D113B0B7
:109F7400F0BD532B14D16B786F2BF8D140F20F1333
:109F8400ADF808304FF6FF63ADF80A40ADF80C3079
:109F940002AD285D0134FDF705FC062CF9D1E6E796
:109FA4004E2B35D16B78612BE1D121463C2203A89D
:109FB40003F098FC12A940F20F4321F8403D053507
:109FC40015F8010B0F190A28E2B2234604F104061E
:109FD400387104F10104F3D1013A8DF80B2012AA6F
:109FE40013440024FF228DF80A4003F83D2C12ABE1
:109FF4003344FE2203F8402CE3B29E4204F10104F0
:10A00400B5DB12AA134413F8400CFDF7CBFBF3E7BE
:10A01400562BACD16B786F2BA9D102A840F20F3329
:10A02400CDF802408DF80640029444600481ADF8F6
:10A034000030063515F8013F03552B780D2B1AD146
:10A0440012AB1C44002304F8403C03F012FC8DF8CE
:10A05400040001238DF80330FF238DF80530FE231F
:10A064008DF8063000241DF804000134FDF79AFB36
:10A07400072CF8D17BE701340A2CDBD1E9E7000097
:10A084000F49104B09781B8801390246032913D85C
:10A09400DFE801F002060A0E0B490C4802F0FABA96
:10A0A40009490A4802F040BB0749084802F086BB48
:10A0B4000549064802F0CCBB0349044802F012BC2F
:10A0C400F02E0020FA200020E02B0020FC200020AD
:10A0D40003782DE9F3412BB1012B00F0918002B0FC
:10A0E400BDE8F081484C494D20882844FDF744FBE5
:10A0F40021884B1C9BB2E818238010F8012C0A2AF3
:10A1040066D19A1EAE5C0D2E62D110F8036CFE2E41
:10A114005ED110F8040CFF285AD13D4F3D4E3878DB
:10A124000139ADF804103044294603F0B2FB33780A
:10A134000E2B3AD17378023B092B36D8DFE803F0B3
:10A144000535353532373A3D452EB378F57845EA4D
:10A15400032505F10208404603F088FA2A4606461C
:10A164002D4903F096FB0D23735535440A236B7078
:10A1740002AA2A4B22F8028D1B882948314602F094
:10A184003FFA304603F0BCFA4FF400720021214834
:10A1940003F0A8FB00233B702380A0E7214B2A791E
:10A1A4001A70F1E7204B01221A7001A80AE01E4B35
:10A1B4000222F9E71C4B0322F6E71B4B04221A7018
:10A1C4000DEB0200FFF75CFFDEE7174B0522EBE720
:10A1D400164A12889A4282D80D4D0C49287802AE4C
:10A1E4001A4626F8023D0B4B184403F052FB304646
:10A1F400FFF746FF2B78227813442B700023CBE71C
:10A20400FDF7AAFA6BE700BFE02D0020E02B002049
:10A21400D4290020D5290020D9290020FA200020A3
:10A2240094200020D52B0020F02E0020F8200020C0
:10A23400FCF760BE30B50024944200DB30BD035D02
:10A244001D09092D03F00F038CBF3735303501F894
:10A254001450092B01EB440594BF303337336B7032
:10A264000134E9E708B50949094801F01DFA08B1C4
:10A27400FCF740FE40F20321054801F02DFA18B125
:10A28400BDE80840FCF736BE08BD00BF619E020071
:10A29400D02E002007B500210822684603F022FBD7
:10A2A4009DF80030694643F0010302208DF8003028
:10A2B400FFF716FD08B1FCF71DFE03B05DF804FBC3
:10A2C40030B5082285B005460C460DEB020000218E
:10A2D40003F008FBFEF70AFB30F0080301D0FCF79B
:10A2E40009FEFFF7EDF9852802D008B1FCF702FE5C
:10A2F4000DF10200FFF7EEF908B1FCF7FBFD0DF1DB
:10A304000300FFF7E7F908B1FCF7F4FD254B1A88C1
:10A314009B78ADF804208DF8063025BB54B101A913
:10A324002046FEF725FB08B1FCF7E4FD2046FEF7C6
:10A3340081FB2EE00720FCF7DDFD2046C0F38700FB
:10A344009DF803308DF80C008DF80B3002A99DF8B0
:10A3540002308DF80A300120FFF7C2FC08B1FCF787
:10A36400C9FD05B030BD01A92846FEF701FB08B1BF
:10A37400FCF7C0FD2846FEF75DFB9DF8083043F06E
:10A38400030365F387038DF80830002CD6D000282A
:10A39400C5D09DF8093043F0030364F387038DF8B7
:10A3A4000930CBE740E302004FF0A0430322C3F897
:10A3B40054274FF40012C3F80825704713B540F230
:10A3C4000F530024ADF800300123ADF802408DF89E
:10A3D4000330FF238DF80530FE238DF804408DF8FB
:10A3E40006301DF804000134FDF7DCF9072CF8D120
:10A3F40002B010BD80B5B8B0B84DFFF7D5FF6424E6
:10A4040045F001054FF47A40A847013CFAD1B44D18
:10A414000FCD0DAC0FC495E80300B24BB24A0893BC
:10A4240008AD4FF4006384E80300CDE90A230993DF
:10A43400AE4A062329460DA8FDF736F908B1FCF704
:10A4440059FDFFF7BBFF4FF400410020FCF7C6F8AD
:10A4540008B1FCF74FFDFBF7F1FFFDF713F808B166
:10A46400FCF748FDA24AA3480121FDF73BF808B1D7
:10A47400FCF740FDA0490120FFF70AFB08B1FCF7F7
:10A4840039FD0DA90020FFF7FBFB08B1FCF732FDF5
:10A49400FDF760FE08B1FCF72DFD02F06DFD08B17B
:10A4A400FCF728FD00230DA901200D9302F038FECE
:10A4B40008B1FCF71FFD0DA802F0FCFE08B1FCF783
:10A4C40019FD2846FFF7FCFB8C4F8D4902220DF144
:10A4D4002500FFF7AFFE9DF82610388803919DF8FC
:10A4E400251002919DF82410019100049DF8231079
:10A4F4009DF821209DF82230009140F0030081490D
:10A5040038ACFCF75BFA112304F8C83D7E4803F02D
:10A514003EFA7D4982B22046FFF7D8FB08B1FCF72A
:10A52400E9FC082200210DA803F0DCF9774A4FF476
:10A53400A0030DA8CDE90D23FFF7C6FB08B1FCF776
:10A54400D9FCFFF78FFE724B72480693214601F047
:10A55400BFF908B1FCF7CEFC0DF114080021042268
:10A56400404603F0BFF96C4B6C480593414601F03B
:10A57400C9FB08B1FCF7BEFC4146694801F082FC06
:10A5840008B1FCF7B7FC14220021284603F0AAF90D
:10A59400002308930A93634B0B930122112329464A
:10A5A40061488DF824208DF8303002F044FB08B166
:10A5B400FCF7A0FC402200210DA803F093F95B49AD
:10A5C4000DA801F01FF85A490FA801F01BF85949CA
:10A5D40013A801F017F811A8494901F013F8112341
:10A5E4000DA8ADF8703002F025FA08B1FCF782FC32
:10A5F400514B0026186806909B88A380AC223146F4
:10A604000DA88DF8146003F06DF9022331468DF81E
:10A6140034304FF0010906230C2228468DF83730D8
:10A624008DF8369003F05EF945F245432046ADF8C7
:10A6340020300A9403F0ABF90423ADF880303F4B8B
:10A6440021934023ADF82400CDE92F360DA93C4BCE
:10A654003C488DF870602595CDF874808DF8B090E5
:10A66400369300F0C0FB08B1FCF744FC01213548E7
:10A6740000F0B6FB1C2200210DA803F033F90023DF
:10A684004FF42032CDE90D32ADF842304FF4702250
:10A694008DF844302C4B0F92129303222B4B8DF8E0
:10A6A40040200DA8139300F091FE08B1FCF722FCA2
:10A6B400FFF7F0FD16211720FFF702FE3888244922
:10A6C400000440F00300FCF751F900224FF48031FC
:10A6D4002048FCF719FF002840D03DE090E3020039
:10A6E40044E30200F12E0020FC360020D5A0020035
:10A6F400199D0200B4E30200C59E0200142000204C
:10A704008C200020B8E302007C20002009000C000B
:10A71400ED9C0200E42E0020339F020094200020D0
:10A72400FC200020001111009C2E0020CEE302002A
:10A73400EEE3020000E402002DE40200E820002021
:10A74400119F0200E42D0020A59E020035A2020004
:10A7540004E40200B02E0020FCF7CCFB01210548E4
:10A7640000F0B3FB08B1FCF7C5FBFBF79DFFFDF759
:10A7740007FDFAE7E42D00200369C1688B429DBF01
:10A784008268D21802F1FF3203F1FF3394BF501AEA
:10A79400581A70472DE9F041D0E902670446F61BC8
:10A7A4004068964288461546384405D903F071F846
:10A7B4003D44E560BDE8F0813246AD1B03F069F825
:10A7C4002A4608EB0601606803F063F8F1E72DE917
:10A7D400F843C5680646894617464FF000083469B1
:10A7E400B3687068A54228BFE418013C621B5C1B77
:10A7F400BC4228BF3C46944228BF144649462844DC
:10A80400224603F046F8B3682544AB4208BF00254E
:10A814003F1BA044A144F560E1D14046BDE8F88364
:10A8240010B5114C114AA2610223C4E90433104B40
:10A83400E361A2644FF400730E4A2362E2640023CE
:10A8440010220D49A362E01D6362E362A3656365A0
:10A85400E365226503F079F80849204603F075F8AA
:10A864002023A37110BD00BFFC3E002033E402008E
:10A87400843F0020743F00203CE4020040E40200D6
:10A88400F8B5184C182300FB033503FB004025449E
:10A89400C46A012C0F46164611D003D3022C1BD0D8
:10A8A40000240AE02846FFF767FF864205D83246AF
:10A8B40039462846FFF76EFF34462046F8BD284641
:10A8C400FFF75AFF8642344628BF044622463946DB
:10A8D4002846FFF75FFFF0E72846BDE8F840FFF79A
:10A8E40076BF00BFFC3E0020FFF79ABF6DDF7047C4
:10A8F40079DF70477DDF704764DF70472DE9F74FDC
:10A904000C9CBDF834B02788002580468A469146C1
:10A914002E46B8F80020B2420BDC35B12288013A49
:10A92400D21B92B2FF2A39D8DA55002003B0BDE811
:10A93400F08FD8F8042052F82600019000220DF17F
:10A94400030101A8FFF7D8FF0028EFD19DF80320E9
:10A954004A4521D12288002D14BF0020022002EB99
:10A9640009010144594519DC3DB9013292B22280F2
:10A9740003F802A022880132228022880DF103010B
:10A984001A4401A8FFF7B8FF0028CFD121889DF809
:10A9940003200A44228001250136BAE70C20C5E7CA
:10A9A4002DE9F341089CBDF824501746CDE9004534
:10A9B40002220646FFF7A2FF48B910223946304664
:10A9C400CDE9084502B0BDE8F041FFF797BF02B0FA
:10A9D400BDE8F0812DE9F04F00231688138090F82C
:10A9E4002D3085B007460D46144653B3082E01D8C2
:10A9F4000C2004E102A8FFF779FF002840F0FF8053
:10AA040013880822CA54238801339BB21B22238053
:10AA1400CA542088013080B2208006220DF1090139
:10AA2400284402F036FF23889DF8082006339BB2A1
:10AA340012F0FE0218BF01222380EA542388013356
:10AA44002380BB78FBB123880433B342D0D802A857
:10AA5400FFF74EFF002840F0D28023880322EA54F7
:10AA6400238801339BB219222380EA542388BDF83A
:10AA7400082001339BB2E9182380EA54120A4A7071
:10AA8400238802332380FA789AB12388D91CB142EF
:10AA9400AED80221E954238801339BB201212380DB
:10AAA400E95423880B449BB22380EA5423880B4443
:10AAB40023807A68AAB12388D91CB14298D802218C
:10AAC40092F90020E954238801339BB20A212380A0
:10AAD400E954238801339BB22380EA542388013349
:10AAE40023803B89002B7ED13B8A53B1CDE90046BC
:10AAF4002B460722032107F11000FFF751FF00281E
:10AB04007DD13B8B53B1CDE900462B461522142150
:10AB140007F11800FFF744FF002870D13A6A002AB1
:10AB240070D1D7F82480B8F1000F30D0B8F80430D1
:10AB34002188981C8A1C0244B2423FF659AFFE2871
:10AB44003FF656AF03336B54238801339BB2FF2285
:10AB54002380EA54238801339BB22380B8F8002071
:10AB6400EA54E918120A4A702088023080B2208020
:10AB7400B8F804205AB1D8F8081000294CD0284459
:10AB840002F087FE2388B8F804201344238097F842
:10AB94002C30002B7BD1387888B33B88012B3BD0F9
:10ABA40021888A1CB2423FF623AF012805D17B7865
:10ABB40002330B449E42FFF41BAF023E761A04A9F3
:10ABC400B6B221F8086DA818FFF794FEB8B93B781F
:10ABD400022B40F09F80BDF80830B34240F2B680AB
:10ABE400ADF808609FE0CDE900462B46062202211D
:10ABF40007F10800FFF7D4FE00283FF475AF05B055
:10AC0400BDE8F08FB4F800C00CF10603B3423FF680
:10AC1400EFAE1188052901D80720F0E76FF4486EDC
:10AC240001EB0E039BB24FF27D3E7345F4D953887A
:10AC3400052BF1D96FF44860181880B27045EBD930
:10AC44004FF6FF70814203D0834201D09942E3D88A
:10AC5400052305F80C30238801339BB2122123808D
:10AC6400E954238801339BB223801188E954E818FE
:10AC7400090A4170238802339BB223805288EA5424
:10AC8400E918120A4A7023880233238049E7BB6A11
:10AC9400002BC1D04FF000094FF00C0A4FF0160BF7
:10ACA40097F82C305FFA89F293427FF674AFB96A51
:10ACB4000AFB02F201EB0208B8F80430981CFE28E3
:10ACC4003FF696AE208803332B54238801339BB27E
:10ACD400238005F803B0238801339BB223808A5A6A
:10ACE400EA54E918120A4A702088023080B220809F
:10ACF400B8F804205AB1D8F8081000298CD0284498
:10AD040002F0C7FD2388B8F804201344238009F116
:10AD14000109C5E7012B7FF463AF7B789E42FFF402
:10AD24005FAFADF808300821BDF80830FE2B3FF6C0
:10AD34005FAE22880133AB542288013292B2228062
:10AD4400A954228813442380002058E70921EBE703
:10AD540070B5C0B14AB116880024B44203D30519B2
:10AD64006D789D4208D0A14201D800200BE0055D1A
:10AD740001352C44A4B2F0E7A142F6D9A31C1380F8
:10AD8400005D013880B270BD37B502AC002324F8F1
:10AD9400023D134622460546FFF7DAFF10B1BDF81F
:10ADA4000600284403B030BD72DF704773DF70477C
:10ADB40074DF704738B5012204460D46B0F8981088
:10ADC400D0F89400FFF7E0FF00B1057004F13C02F5
:10ADD40004F1940104F15400BDE83840FFF7E4BFE6
:10ADE40080F830107047F8B504460F46002968D043
:10ADF400002866D091F87A301BB191F89830002B76
:10AE040061D1D7F8A030042B5DD0D7F89C30042B47
:10AE140059D007F178060FCE4FF0000C251D84F8A9
:10AE240002C00FC50FCE0FC596E8070085E80700DE
:10AE340084F830C0D7F8A4306363D7F8A830A3638C
:10AE44004FF6FF7504F19403C4F8A430A4F8A85095
:10AE54000722614604F1AA0002F044FD23780BB9ED
:10AE640084F85450224604F155011F25C4F8941067
:10AE7400384622F8985FFFF7ADFD08BB224604F17F
:10AE84007401C4F89C1007F13C0022F8A05FFFF79E
:10AE9400A1FDA8B9A269A4F848200123626920642D
:10AEA40084F850006264014684F8513084F83C30E0
:10AEB40004F13C0204F15400FFF776FF00B923705B
:10AEC400F8BD0E20FCE70720FAE7F8B5077804463A
:10AED4000D46002F00F00E81A1700020FCF77AFFD0
:10AEE400014618B1012363700020F8BD04F1AA06DD
:10AEF4000722304602F0F6FCE38813B1A378012B55
:10AF040004D0E3794BB1A378022B06D1636BA3B1D0
:10AF1400012284F8B12008209847334604F1B00197
:10AF240013F8012F12B99942FAD117466B1E032B5D
:10AF340053D8DFE803F0050B0F1284F8B130ECE7C7
:10AF4400A3791BB194F8243003B95FB9E3790BB149
:10AF5400002F44D1237A002B43D1637A002B0CBFFA
:10AF640000250425636BA570002B3CD0033D012D07
:10AF740039D86279002A36D094F8B220002A32D126
:10AF840084F8B420012284F8B3200720984704F100
:10AF94003C0518220021284602F0A4FCE36A94F838
:10AFA40024200121581E884288BF0B4684F83C1097
:10AFB40084F8513032B1884296BFA36A84F85210A3
:10AFC40084F85230A178002384F8503004291BD827
:10AFD400DFE801F07A0D25385C000025C2E7022580
:10AFE400C0E70325BEE7002384F8B330CFE7C4F8F5
:10AFF400A430C4E910630223012284F83C30802386
:10B0040084F83120A4F84830A378002B5FD1636B17
:10B01400002B3FF469AF94F83100984764E70223AA
:10B0240084F8313062B1072384F83C302369A4F8F2
:10B0340048300023C4F8A430E36826646364E3E77B
:10B044000323F1E763696364A369A4F8483012B188
:10B05400062384F83C306379B3B194F8B2309BB9D9
:10B0640094F8B43083B1022384F85030042120468C
:10B07400FFF7A0FE0028C7D1052384F8313004F17E
:10B084009403C4F8A430BFE70323F6E7E3696364D9
:10B09400236AA4F8483012B1062384F83C3063795B
:10B0A40083B194F8B2306BB994F8B43053B102233D
:10B0B40084F8503004212046FFF77CFE0028A3D1F9
:10B0C4000623DAE70423D8E784F831309CE72A46DC
:10B0D400D4F8A41004F15400FFF766FE00287FF4AE
:10B0E40004AF94F8301094F85400FFF75FFE002882
:10B0F4008DD0FAE60820F8E60388112B10B50C462B
:10B104000AD0262B1FD0102B05D1C37B012B02D1D3
:10B114008388A1F8A83010BD0022838881F8B2206A
:10B12400B1F8A8209A42F6D10B79002BF3D1012172
:10B134002046FFF7CAFE0028EDD0A36B002BEAD00F
:10B14400BDE810401847037A013B012BE3D8897806
:10B154000523013191FBF3F303EB8303C91AC9B24D
:10B16400E6E70238012810B50C460DD84B785BB1E0
:10B1740000234B7020468978FFF7A7FE20B1A36B0C
:10B1840013B1BDE81040184710BD38B5044690F817
:10B194005400FFF70DFE012384F8B230002384F835
:10B1A400B43084F8503006212046FFF703FE0546EC
:10B1B40038B9A1782046FFF788FE10B1A36B03B11C
:10B1C4009847284638BD75DF704776DF70477ADFC9
:10B1D40070477BDF70470000034B1A8882420CBF24
:10B1E40018460020704700BFA0410020024B9B6915
:10B1F40003B11847704700BF8441002037B585B2BA
:10B204002846FFF7E9FF034670B1164C017A227B0A
:10B2140091420BD200F10A012846FFF7D4FFE8B1AE
:10B22400112801D0FFF7E2FF03B030BD237C0022D8
:10B23400027243B13B212846FFF7C7FF30F00803F1
:10B2440001D0FFF7D3FF6369002BEDD000228DF806
:10B254000420ADF8065001A89847E5E71A7A0132B0
:10B264001A72E1E78441002013B50B46497A0F4C6A
:10B27400024669B9D4E901101C7A002C18BF0146B2
:10B284005868FCF741F908B1FFF7B0FF02B010BDF0
:10B29400002119726369002BF8D00121ADF8060072
:10B2A4008DF8041001A89847F0E700BF84410020FE
:10B2B4008388B3F5FA7F28BF6FF4F97230B528BFDD
:10B2C4009C1805884A8838BF002495420CD84088C9
:10B2D400904209D38A88A24206D303F2F310904223
:10B2E40034BF0020012030BD0020FCE70388112B6F
:10B2F40070B5014648D002D8102B1ED070BD122B59
:10B3040052D0502BFAD12F4BC288DB899A42F5D107
:10B31400038A022BF2D186883046FFF75DFF05468B
:10B324000028EBD001F1120000F062F930BB68682C
:10B33400FCF72EF90028E1D009E0C37B012BDDD115
:10B344004FF6FF70FFF748FF054620B90420BDE81B
:10B354007040FFF74BBF1C4A8E880680002303729F
:10B364001368C5F80A300A30536843601031FFF798
:10B374009FFF144B6872DB89002BBFD129463046EE
:10B38400BDE87040FFF770BF8088FFF725FF0446D3
:10B394000028B3D04068FCF7FBF808B1FFF726FF9C
:10B3A4004FF6FF732380A9E786883046FFF714FF22
:10B3B40005460028A2D008310A30FFF779FF6872E9
:10B3C400DCE700BF84410020B4410020F8B5064604
:10B3D40050B305460FCD154F3C460FC495E8070002
:10B3E40084E807003068124B3B60B8B1FFF7EFFE0A
:10B3F400C8B931680A681A604A685A600D480E4A2A
:10B404004FF6FF7303800D4B40F8043F0021FCF717
:10B4140069F8002814BF0320002004E01846FFF751
:10B42400D8FE0028EAD0F8BD0E20FCE784410020B5
:10B43400B4410020A041002001B20200BC41002020
:10B4440073B50191019C06466CB100252C46294632
:10B4540001A8FCF757FA18B106EB440301349D80A8
:10B464000135142DF3D13046346002B070BD0000B4
:10B474002DE9F04303888488112B8DB0064640D013
:10B484001A2B43D0102B16D1294DAB680CA8DB43E3
:10B4940040F8303D55F8041FFCF75DFA009901A807
:10B4A400FFF7CEFF0027019B9F4207D3132C18D927
:10B4B4000420FBF71FFD0DB0BDE8F08301AB03EBE7
:10B4C40047034FF00008B3F8049005EB0800494621
:10B4D40008F10408FCF70CFAB8F1740FF5D1013740
:10B4E400E1E721461348FCF7FAF921461248FCF734
:10B4F400F6F9F37B012BDED010482146FCF7EFF977
:10B50400D9E70C482146FCF7F3F9D4E7057A0C484F
:10B514002D09012D214606D9FCF7E1F9022D21461A
:10B524000848F0D0EAE7FCF7E3F921460548EAE7E2
:10B53400DC410020E4410020E0410020E8410020FB
:10B54400EC410020F04100201328014602D80248B3
:10B55400FCF7D8B900207047E041002010B504463C
:10B56400FFF7F2FF38B121460348FCF7CBF9002876
:10B5740014BF0220012010BDE441002010B5034B8C
:10B5840004465968FFF75CFF204610BDDC410020EB
:10B5940010B50446FFF7D8FF002814BF2046142036
:10B5A40010BD70B5054616460AB90E2070BD0023BD
:10B5B40013600028F9D00368002BF6D0C38813F079
:10B5C40003040FD10846FFF7E3FFC0B214280BD0E1
:10B5D4002B7983420AD9EB882A6800FB0320306068
:10B5E4002046E3E70720E1E70520DFE70420DDE765
:10B5F400007800F0010070470B7803704B784370BB
:10B604000220704738B5044608460D4602F0BFF9DB
:10B614006560208038BD90DF7047A5DF7047B5DFD7
:10B6240070470000F0B585B00023ADF80810ADF800
:10B634000A106A4602A9074603930093ADF8043042
:10B64400FFF7E9FF064618B3134C2588FCF7F2FD13
:10B654002D0445F0010503463A4610492846FBF7F8
:10B6640093F9BDF80020BDF8023002B933B1208847
:10B674000B49000440F00100FBF786F9BDF80420F3
:10B6840032B120880749000440F00100FBF772F949
:10B69400304605B0F0BD00BF2C20002047E4020076
:10B6A40091E40200D0E4020088B10A4B0360FB235A
:10B6B400037140F20323C3801723038141F6FB3255
:10B6C400002301618372C3728281184670470E2081
:10B6D400704700BF0302030238B1A1F11703B3F5A9
:10B6E400F67F04D80180002070470E2070470720A1
:10B6F4007047000037B5034680880C46A0B91A8805
:10B70400232A00F0B38011D8102A25D0112A58D04A
:10B71400A37A4BB1E1880020FFF77FFF002840F0B7
:10B72400AB800123A072E37203B030BD3A2A53D038
:10B73400552A6DD0242AEBD11A7A0B694A73002B4F
:10B74400E6D04DF67A21ADF80400ADF80010ADF85E
:10B7540002008DF8042085E0DB7B0A790A73012B53
:10B7640013D0022B14D0E18823898B4205D2002008
:10B77400FFF755FF70B90123E372217B637B8B4292
:10B78400C6D20020FFF74EFFC2E70B88E380EAE74A
:10B794004B88FBE7112802D10123A372EDE70828A7
:10B7A40002D10023E372F8E73B4B1D88FCF742FD0E
:10B7B4002D0445F00105024638492846FBF7DAF81E
:10B7C400DBE740F20323CB8017230B8141F6FB33E5
:10B7D4008872C8728B819BE75B89CA88934228BFB1
:10B7E4001346172B0A6938BF17230B8162B1C97A34
:10B7F40051B140F67721ADF80010ADF80200ADF874
:10B8040004306946204690470023E372A3727FE721
:10B81400DB88C988A072172B38BF17238B4228BF37
:10B824000B462381FFF7FBFE58B11B4B1D88FCF729
:10B8340001FD2D0445F00105024619492846FBF790
:10B8440099F8E27A002A7FF463AF2369002B3FF46E
:10B854005FAF40F67721ADF802202289ADF80010E1
:10B86400ADF8042069462046984751E7197A237BAE
:10B87400994228BF194685E711283FF455AF064B76
:10B884001C88FCF7D7FC240444F001040246034955
:10B894002046FBF76FF847E72C20002026E502003E
:10B8A40057E50200B0DF704766DF7047034610B506
:10B8B40000214088FFF7F8FF024608B91A7210BD4C
:10B8C400112801D10122F9E75B68BDE8104018474F
:10B8D40060B159B10378DE2B0AD00B684360DE23D4
:10B8E40003704FF6FF734380002070470E207047AB
:10B8F4000820704728B10378DE2B04D14180002052
:10B9040070470E20704708207047F0B5054685B093
:10B914000C46F1B1E8B10B78DE2B1AD182884B8842
:10B924009A4204D10B7A13B10846FFF7BFFF2B8864
:10B93400112B32D0512B0ED0012B0AD12B7A012B93
:10B9440007D1A9886288914203D123722046FFF768
:10B95400ADFF05B0F0BDAE886388B342F9D1AF79CD
:10B96400022FF6D1AD7B2B1F022BF2D8002110221F
:10B97400684601F0B7FF052D14BF4FF4C0730023D0
:10B98400694630468DF80070ADF80430FFF78AFF41
:10B994000028DED063689847DBE76388AA889A4268
:10B9A40004BF4FF6FF736380D3E7A8DF7047AADFB5
:10B9B4007047ACDF7047ADDF7047AEDF704762DFC2
:10B9C400704770B505468AB00C46002900F08280A5
:10B9D40000287FD00388502B40D0572B00F0FE80E6
:10B9E400102B77D10AAA0026818842F8246D606C56
:10B9F400FFF7D7FD082231460DEB020001F072FF7C
:10BA0400022302AAB4F84010A888CDF80CD00293FF
:10BA1400FFF7D1FF00285DD1A36C002B5AD0039807
:10BA2400FFF7E6FD002855D0019B3BB101221A70B7
:10BA34005A709A70DA701A715A719A711822002128
:10BA440004A801F04FFF02238DF81030AB88ADF845
:10BA54001830019B05940793A36C23E08188606CE4
:10BA640002AAFFF79EFD1822002104A801F03AFF64
:10BA7400AB88ADF818302189EB88029A0594994275
:10BA8400079217D12E8A022E14D11AB305F112008F
:10BA9400FFF7AEFD029B40B101221A708DF81060D1
:10BAA400A36CBBB104A8984714E0187003238DF865
:10BAB4001030F5E7A18899420ED1A16C61B1002341
:10BAC4008DF8103005F1120308932B8AADF8243059
