:020000022000DC
:1060000000000120396202009162020093620200E6
:10601000956202009762020099620200000000008F
:106020000000000000000000000000009B62020071
:106030009D620200000000009F620200A162020057
:106040002D880200A7620200458D0200AB620200AB
:10605000AD620200AF620200C18B0200B3620200B7
:10606000B5620200B7620200B9620200BB620200C0
:10607000BD620200BF620200C1620200C362020090
:10608000C562020001710200C9620200CB62020017
:106090009D710200CF62020061C80200D36202005B
:1060A000D5620200D7620200D9620200DB62020000
:1060B000DD620200DF620200A3620200A36202004E
:1060C000E1620200E3620200E5620200E7620200B0
:0C60D000E9620200EB620200ED620200D7
:1060DC00354936480A1A02D0072291438D46344975
:1060EC0034480A1A06D00722914381F30988022208
:1060FC0082F3148830483149314A00F044F8314871
:10610C003149324A00F03FF831483249324A00F006
:10611C003AF832483249334A00F035F832483349BC
:10612C00334A00F030F833483349344A00F02BF846
:10613C0033483449344A00F026F8344834490022B4
:10614C0000F02CF833483449002200F027F833488B
:10615C003349091A082902DB002202604160314AE6
:10616C0090471F481F49884205D00268043003B489
:10617C00904703BCF7E700208646EC460020002140
:10618C00294A9047FEE7884207D0521A05D0037877
:10619C0001300B700131013AF9D17047884202D0BD
:1061AC0002700130FAE770470000012000F0002077
:1061BC000000012000000120F4E1020044700020E6
:1061CC0048710020F0620200F062020036D002003A
:1061DC00F4E102004470002044700020ACD10200B5
:1061EC00ACD10200ACD10200ACD10200ACD10200A7
:1061FC00ACD10200ACD10200ACD10200F2E1020041
:10620C00F8E202004871002048710020487100201B
:10621C007E920020809200208492002084920020A4
:10622C0084A200205D62020021A302000F484FF0FF
:10623C000701884385460E4880470E48016841F4A3
:10624C0070010160BFF34F8FBFF36F8FFFF740BF3B
:10625C0009480A490A4A884207D0521A05D00378DD
:10626C0001300B700131013AF9D170470000012067
:10627C00AD82020088ED00E068D1020000700020C1
:10628C0044700020FEE7FEE7FEE7FEE7FEE7FEE7D0
:10629C00FEE7FEE7FEE7FEE7FEE7FEE7FEE7FEE7CA
:1062AC00FEE7FEE7FEE7FEE7FEE7FEE7FEE7FEE7BA
:1062BC00FEE7FEE7FEE7FEE7FEE7FEE7FEE7FEE7AA
:1062CC00FEE7FEE7FEE7FEE7FEE7FEE7FEE7FEE79A
:1062DC00FEE7FEE7FEE7FEE7FEE7FEE7FEE7FEE78A
:0462EC00FEE700BF0A
:1062F00000487047789200207047000007B5044BB3
:106300000093044A402300F032F803B05DF804FB28
:1063100019630200497100202DE9F84388461446AC
:10632000B2B10F4B0F4E0325002743F0010922465F
:1063300008EB0701002004F06FFA0744241A48B95B
:1063400033782BB14FF47A40C847013D02D1357004
:10635000BDE8F88301233370002CE8D1F8E700BFD3
:10636000B0D1020048710020704704F089BAF0B53E
:1063700095B01D46164608460C4601F07CFE1A9B59
:106380000D93CDE9086500252B46082205A9204676
:106390000A958DF82C500C9501F0A9FE079B0293ED
:1063A000069B03939DF814308DF8115003F00302FF
:1063B000012A1DD1BDF81420059DC3F3C203C2F309
:1063C00083168DF81030B20008230EA9204601F084
:1063D0008EFEC5F3952508AB0093324602AB0EA99D
:1063E000284600F07FFB204601F049FE15B0F0BDC5
:1063F000022AF8D1BDF81650C3F3C203C5F38915BC
:106400008DF810300827082D2E4628BF08263B4659
:1064100032460EA9204601F06AFEAD1B08AB02AA67
:1064200031460EA8374400F0C1FB002DEBD1DAE76E
:1064300010B5054CFFF799FF0421204600F0BCFA87
:106440000123637210BD00BF44700020037813F075
:10645000030F03F0040202D012B910467047B2B124
:1064600003F00303012B03D0022B09D00120704756
:106470000A6800880232C0F3831002440A60F5E71C
:106480000B684288023303EB92130B60EEE70B6854
:106490004288013303EB92130288F4E72DE9F04FB1
:1064A00087B000230446861C0DF107000F461546F1
:1064B0008DF8073001F084F9454801683960D0E96A
:1064C0000132134401335B1A824600F21C4700F587
:1064D000836900F21448B3421CD30020002D73D00E
:1064E00004F00F039B0143F0050363F30F00DAF898
:1064F0000020DAF808301340033316444AF823002A
:106500009DF80700CAF8006001F07EF9012007B08D
:10651000BDE8F08F0121384601F012FA484601F03B
:1065200027FA404601F024FADAF80400DAF808B055
:10653000029000EA0B0003300AEB800002A9FFF78B
:1065400085FF029B50BB0BEA03020AEB820203F1B8
:10655000020CD2680392013303EA0B0B0AEB8B0B9C
:1065600002F00302012ADBF80C10CDF808C023D09A
:10657000022A16D08346404601F0FDF910B1029B75
:10658000CAF804305946384601F0DAF9DAE901234D
:106590001344DAF8002001339B1A9CE70BEA03004E
:1065A000C9E7BDF80E30C3F3891303334FEA114B2B
:1065B0000CEB93030293DEE7BDF80C30C3F38313B7
:1065C0004FEA114B6344F5E7A40544F006008EE75B
:1065D0005C72002008B50E4B0E48FF229A60002224
:1065E000C3F81824C3E90022C3F8142483F8202434
:1065F00001F0FAFC38B9084A084B09499B1ADB0834
:1066000002469A4200D108BD21F822200132F8E763
:106610005C72002028D10200A0D0020028D1020024
:106620000070002030B50A4C71B10A4A0A49121BA9
:10663000D20800239A4201D1002030BD31F8235006
:10664000854202D00133F5E7034654F83300F4E7FE
:10665000A0D0020028D1020002700020094B0139AD
:1066600003EBC000032909D8DFE801F00A020406A1
:1066700004207047007970474079704700207047C8
:1066800002207047A0D00200034BD3E90030C31AA8
:1066900058425841704700BF5C7200202DE9F0431A
:1066A00087B0FFF7F1FF0646002840F0F3807A4DEF
:1066B000C5F81804BFF34F8F6B68AC680293234092
:1066C000033305EB830002A9FFF7C0FE029B0746D8
:1066D000002861D104EA0302991C013305EB820210
:1066E000234005EB8303D268DB68049302F00303C5
:1066F000022B0392029162D1BDF80E306748C3F3BA
:106700008918B8F1500FC14628BF4FF0500969F3FE
:106710008F1309F10801ADF80E3001F07DFC06463B
:10672000002800F0A58001F0A6FC3B46082203A942
:10673000304601F0B3FC029924EA01020132B9EBC0
:10674000820F4FEA820333D95FFA89F963B321409C
:10675000DCB2A9EB040903315FFA89F7A146504C7A
:1067600005EB810108234A46304601F097FC34B11D
:1067700009F108033A462146304601F08FFC029B9E
:1067800008F1030803EB98030293D5F81834002BA3
:1067900048D1D5F8104456E02A689A428FD86A60EA
:1067A000304607B0BDE8F0833D491C461F46D9E797
:1067B0000C40E11C08234A4605EB8101DCE7012B74
:1067C00056D1BDF80C303548C3F38311062928BFD4
:1067D000062161F3891302318900ADF80C3001F014
:1067E0001BFC0646002843D001F045FC3B4608222E
:1067F00003A9304601F052FCBDF80C20C2F383120D
:10680000BB00974203F10803BFD202994A1C214002
:106810000331029205EB81010422304601F03EFC77
:106820000137E9E7304601F02AFCFFF72DFF80F041
:106830000100C6B2B4E7637A23B1236831461B680E
:10684000204698476468002CF5D1304601F017FCCB
:106850000DF107008DF8074000F0B2FFD5F81834AD
:106860000BB9029B6B609DF8070000F0CDFFDCE7E1
:10687000D5F8104444B90B4B0B491888000440F07C
:10688000020000F05FF8D0E7236820469B68984735
:106890006468EFE7002683E75C72002028D10200DD
:1068A0006872002014700020C4D102002DE9F74F57
:1068B000224D04460F46924601A901221846D5F8FA
:1068C00008909B46FFF7EAFD20B3019E4FF00008B9
:1068D000B21CD84508EB020126D11948002101F06D
:1068E00000F880F31000000440EA1440E400731C38
:1068F00004F0380403EA090306EA090644F0010437
:1069000005EB8303033644EA881444EA8724D860FD
:1069100045F8264095F820341BB1FFF7BFFE00284C
:10692000FBD103B0BDE8F08F09EA010105EB81015D
:106930005AF82830CB6008F10108CAE75C720020E1
:106940007876002000231A46FFF7B0BF07B5012371
:10695000019201AAFFF7AAFF03B05DF804FB07B597
:10696000CDE9002302236A46FFF7A0FF03B05DF8DC
:1069700004FB7FB5CDE90123089B0393099B049396
:106980000A9B059301AA0523FFF790FF07B05DF866
:1069900004FB7FB5CDE90023089B0293099B039379
:1069A0000A9B04930B9B05936A460623FFF77EFF21
:1069B00007B05DF804FB00000F4930B5D1F8104472
:1069C0000346002022463AB91872D1F8104444B95F
:1069D000C1F810345A6030BD157A854205D052682E
:1069E000F1E762685A606360F5E701300A28E9D18F
:1069F0004FF0FF30EFE700BF5C720020084A38B567
:106A00000123D2F8104482F820341D4604B938BD61
:106A10002368657220465B6898476468F6E700BFA4
:106A20005C72002007B503460846197A052911D083
:106A30005B7A2BB1094A0A49019000F0FFFF0198E7
:106A40000849019000F0FAFF019803B05DF804EBEB
:106A500000F0E9BF002AF8D0F2E700BFECD1020055
:106A6000F1D10200A1DC020030B5C38885B0044634
:106A70000D4633B1144A00921449154A284600F0D5
:106A8000DDFF217A05291DD0637A4BB1A088FFF77D
:106A9000E5FD104B104953F82020284600F0CEFFAA
:106AA000227A0E4BA08853F8222003920021FFF790
:106AB000B9FD039A0A490346284605B0BDE83040AF
:106AC00000F0BCBF05B030BDECD10200FCD102002B
:106AD000F4D1020080D20200F1D10200A4D202005F
:106AE00014D202002DE9F04385B01F460C9D00230F
:106AF00095F80C902B7306460C469046294638466E
:106B0000FFF7B2FFB8F1060F09D8DFE808F004126A
:106B1000181F283340003146284600F08FFF00221E
:106B200029463846FFF77EFF85F80C9005B0BDE892
:106B3000F08322683146284600F080FFEFE7D4E971
:106B400000233146284600F079FFE8E7A368009368
:106B50003146D4E90023284600F070FFDFE7E36800
:106B60000193A36800933146D4E90023284600F03E
:106B700065FFD4E723690293E3680193A368009358
:106B80003146D4E90023284600F058FFC7E763697F
:106B9000039323690293E3680193A368009331464A
:106BA000D4E90023284600F049FFB8E708292DE979
:106BB000F74F80460E4617461C4639D8002593F8F5
:106BC0000C901D7319461046FFF74EFFDFF880A0AA
:106BD000DFF880B0AE422ED918F80520594620467D
:106BE00000F02CFF0135082DF4D11849DFF868A01A
:106BF000DFF868B0204600F021FF0025AE421FD923
:106C000018F805200192104606F086F80028019A2F
:106C1000594608BF2E22204600F010FF0135082DEE
:106C2000ECD1012221463846FFF7FCFE84F80C9097
:106C300003B0BDE8F08F5146204600F0FFFED1E7DB
:106C40005146204600F0FAFEE8E700BF28D20200D5
:106C500024D202001ED2020026D202002AD2020052
:106C60002DE9F04F364E87B04FF00009354B1B78B9
:106C70005FFA89F5AB4202D807B0BDE8F08F324B1E
:106C8000D3F800A01AF835000124D6E9001EA0F1BF
:106C90002002C0F1200304FA02F224FA03F31343A2
:106CA00004FA00FC059301EA0C030093059B0EEA2D
:106CB00003030193DDE9002313430AEBC50B3BD02B
:106CC000059B21EA0C012EEA0303C6E9001301F03B
:106CD0006DFF01461AF835001C4DA0F12002C0F1ED
:106CE000200304FA02F224FA03F31343D5E900C2A5
:106CF0008440134004EA0C040393A0F12002C0F185
:106D0000200321FA03F3029401FA02F848EA030887
:106D1000DDE9023401FA00F7444508BFBB420BD15C
:106D2000DBF8043043B19BF80120541E62426241FB
:106D3000551A69426941984709F1010996E700BF70
:106D4000B076002080760020B8760020A87600205B
:106D5000F8B506461E4800F009FCC0BB0125A6F1A7
:106D60002004C6F1200325FA03F305FA04F41C43BA
:106D7000184BD3E900C2B5400CEA050002EA040151
:106D800001431F461DD1304601F010FF124BD3E9DD
:106D9000001288B129432243C3E90012D7E9002336
:106DA0001C430E4B0A4819681543C7E900540022DA
:106DB000BDE8F84000F092BB21EA050122EA040296
:106DC000EAE72CEA050522EA0404C3E90054F8BD09
:106DD00088760020B0760020A876002084760020F7
:106DE000042A2DE9F34105460C46164639D901F02F
:106DF000ADFDD8B11C4B1D491D601D4BDFF88480D3
:106E00001C701C4B00221E600023C1E900231A499C
:106E1000C1E90023013CE4B200260327FF2C0CD17A
:106E2000164A1748002100F047FB03E001F054FD2B
:106E30000028DFD002B0BDE8F08105EBC40315F8EF
:106E400034009B788DF80660424601A98DF80470E5
:106E50008DF8053001F0F4FD013CE4B20028DDD0EE
:106E6000E8E70720E6E700BFB8760020A876002014
:106E70008076002084760020B0760020616C0200CD
:106E8000B8D20200516D020070B5084D084E0024C2
:106E90002B789C4201D3002070BD3368012113F888
:106EA000340001F03FFE0134F2E700BF807600209D
:106EB000B87600201FB50021039001AA44F201001A
:106EC000CDE9011100F004F805B05DF804FB000005
:106ED0002DE9F041064686B08846154672B6FFF7A2
:106EE0008DFDFFF7DBFB0028FBD12B4F3C8844F2E4
:106EF000010324049E4244F0010436D00BD8012E35
:106F000014D041F201039E422DD02449424620462E
:106F1000FFF71CFD0EE044F202039E42F5D12B88E0
:106F20006A681F492046FFF71AFD03E01D49204605
:106F3000FFF708FD1C4B1B68DB0700D500BE388837
:106F40001A49000440F00200FFF7FCFCBFF34F8F2A
:106F50001749184BCA6802F4E0621343CB60BFF3D1
:106F60004F8F00BFFDE71449E1E7AA68059210467C
:106F700001F058F92968CDF80880019169680091FD
:106F800003460E49059A2046FFF7F3FC38880C4962
:106F9000000440F00100CBE7147000204FD3020042
:106FA000FBD20200BCD20200F0ED00E067D3020089
:106FB00000ED00E00400FA05D9D2020015D302006A
:106FC0003BD3020049B152B1531E1A4007D182602F
:106FD00001608380C260104670470E207047092010
:106FE000704710B58468C2688388121B934208D327
:106FF000C26813400268D154C3680133C3600020E3
:1070000010BD0420FCE78268C3689A420AD08268F7
:10701000838813400268D35C0B70836801338360FC
:107020000020704705207047C368836000207047C8
:10703000094A537891780133DBB2994208BF0023A3
:10704000117899421FBF03705078182303FB00206A
:1070500014BF043000207047BC76002073B505468D
:1070600000240DF107000E468DF8074000F0A8FB44
:107070000DF10600FFF7DCFF90B10670094B9DF89B
:10708000062045605A709DF8070000F0BDFB24B94A
:10709000054B4FF48012C3F80021204602B070BDAA
:1070A0000424F0E7BC76002000E100E0024B4FF43E
:1070B0003C6043F00103184780D3020038B50C4B05
:1070C0000C4C4FF40032C3F8802001254FF480337C
:1070D000C4F84833C4F808336560FFF7E7FF064B90
:1070E000A56000241C60FFF7E1FF044B1C7038BD55
:1070F00000E100E000100140D8770020C9770020AF
:10710000F8B51F4B1F491B680025C1F84051C1F855
:107110004451C1F84851C1F84C51C1F80051C1F86F
:1071200004514BB3D1F8044517490968641A24F097
:107130007F442F461A68A24209D8A41A15441A7C23
:10714000DE691AB1D3E905201F749047AEB90F4A22
:107150000F4B11781B788B4205D10133DBB2022B28
:1071600008BF0023137012780A4B43F822500A4BD1
:107170004FF48012C3F80021F8BD3346DAE700BFB0
:10718000DC77002000100140D8770020D577002060
:10719000D4770020CC77002000E100E02DE9F04F0B
:1071A000A24AA34913780978A24D994285B03CD0F0
:1071B0000133DBB2022B08BF002313709E49127803
:1071C0009E4B0F6853F822003B1823F07F430022A8
:1071D0000B602B6816461446944613B942B12B60D7
:1071E00006E0196881420ED902B12B60091A1960B4
:1071F00001272B68DFF84CA201934FF00008BEB9BD
:10720000DFF848B262E0401A0C44D968D3F81CE0B9
:10721000C3F800C031B13A1922F07F42C3E901211D
:10722000DE611E4673460122D7E700263746E0E7B7
:107230003446F669804A63681268DFF814C2A068B1
:10724000991A21F07F41614500F2A8800144216034
:10725000012222742A680023C4E90133E361002A71
:1072600040F0A5802C60CAE79BF802105A1CD2B2ED
:1072700091428BF8002004BF00228BF800201822D6
:1072800002FB03B32A6819799C68022977D0032985
:1072900000F08180012919D1207CB8B9D3E903120B
:1072A000A2605A69E2609A69654BA2611B78002B63
:1072B0000CBF0B4603466360BCE78C4200F0948031
:1072C0008946C9690029F8D1002323749BF800304E
:1072D0009BF801209A42C7D12B68B8F1000F04D166
:1072E000019A9A4201D1002F43D0002B79D0D3F8D4
:1072F00000A0544D504BD5F804751C68DFF854813C
:107300003E1B98F8003026F07F4603369BB94FF4B9
:107310008033C5F84433C5F804334B4B4FF4003287
:107320004FF00109C3F880211A60C5F80090FFF7FB
:10733000BDFE88F80090B2452CBF5444A41924F037
:107340007F44C5F84045D5F80435DB1B23F07F4367
:10735000E41B033324F07F44A3420AD9D5F8043553
:10736000C5F84035FFF7A2FE374B4FF40032C3F8A3
:107370000021334B00221A7005B0BDE8F08F114692
:1073800091469FE71174D2690123002AFAD1002B9C
:107390009CD02A609AE700231946F6E7D31A23F017
:1073A0007F43834234BFC31A0023236050E7216820
:1073B0001368994213D8591A1160E26152E7091A09
:1073C000D8691A4638B1034618688842F7D3401A7C
:1073D0001860184613462160E061DC610FE7134630
:1073E000F2E7FFF76BFEC4E74C4511D1D3692B6080
:1073F00073B9DFF844E00120CDE90212CAF80800B1
:10740000CEF800300E4B1870FFF750FEDDE9021287
:107410000B68C969C9F81C1011B1086803440B60F6
:107420002B68934218BF4FF001084DE7D477002036
:10743000D5770020DC770020D8770020CC7700209B
:10744000C87700200010014000E100E0BC76002079
:10745000FEFF7F00C977002008B5FFF72FFE104B15
:1074600000200B2218809A700E4B18600E4B18707B
:107470000E4B18700E4B4FF48012E021C3F88021A0
:1074800083F814131A6002F18042A2F56F22C2F849
:10749000080583F81113074BD2F804251A6008BDBC
:1074A000BC760020DC770020D4770020D577002040
:1074B00000E100E0D8770020074B9B784BB132B158
:1074C00028B10368187C20B959745A6170470720A5
:1074D00070470820704700BFBC7600202DE9F743B5
:1074E000DFF8848098F8023005460E461746ABB3A5
:1074F000A0B3042930D9436983B3437C0024012B12
:107500000DF107000CBF8946A1468DF8074000F039
:1075100057F90DF10600FFF78BFDD8B10123037079
:107520000F4B4560D3F80435C0E90497C0E9023633
:107530009DF8063088F801309DF8070000F064F9E6
:1075400024B9084B4FF48012C3F80021204603B041
:10755000BDE8F0830424EFE70724F7E70824F5E704
:107560000010014000E100E0BC760020064A92785D
:107570003AB130B1426922B1002202740221FFF710
:107580006DBD0820704700BFBC7600200648074A42
:1075900003780749D35C012213B1043002F012B81A
:1075A0000C3001F0F3BD00BF507000206078002067
:1075B000087800200648074A03780749D35C01226F
:1075C00013B1043001F0B0BF0C3001F08DBD00BF2D
:1075D00050700020607800200978002037B50578C9
:1075E000012D0BD0022D2CD0F5B91D491D48FFF7F8
:1075F0000AFD002830D1FFF7DDFF15E043681A4C83
:1076000019782046FFF7EDFC80B18DF8005001900D
:10761000164B68461B689847A168E368A2885B1A06
:107620009A420AD3FFF7B2FF03B030BDA268E36805
:107630009A42F1D08DF80000EAE70D4B01221A7052
:10764000F2E7C3688DF800500193FFF79FFF074BE7
:1076500068461B689847E7E703238DF80030F6E794
:1076600009780020F8770020E4770020E0770020F8
:10767000F4770020F0B51F46234B89B004461A600A
:107680000D4600293DD08A8820480968FFF79AFCFA
:10769000002834D1AA89A9681D48FFF793FC002867
:1076A0002DD11C4E0FCE6D460FC596E80F0085E814
:1076B0000F0063690693237C174A18488DF81C70E5
:1076C000003B18BF01238DF81430637C002B14BFDE
:1076D0000E2300238DF81530E3680293A36803930B
:1076E0002368019369466368009301F02BF830B971
:1076F0000B4B18702368013301D0FFF747FF09B027
:10770000F0BD0720FBE700BFE0770020E477002012
:10771000F877002088D30200DD7502005070002049
:10772000F477002008B50548FFF77EFC20B9BDE8D6
:1077300008400348FFF778BC08BD00BFE47700208D
:10774000F877002070B5084D014608482E78FFF7FD
:107750005AFC044636B100232B70FFF717FF08B11F
:10776000FFF7A8FB204670BDF4770020E4770020E7
:1077700010B501460E48FFF734FC0446A8B90D4881
:107780000D4A0378D35C63B1043001F00FFF60B998
:107790000A490748FFF737FC38B9BDE81040FFF742
:1077A00009BF0C3001F0E6FCF1E7204610BD00BF38
:1077B000F8770020507000206078002009780020C1
:1077C00070B5EFF3108672B60C4A946801239CB929
:1077D00093600B4B0B4DD3F8801029401160C3F818
:1077E0008050D3F8841051604FF0FF32C3F88420EA
:1077F000047006B962B670BD0370FAE70C78002019
:1078000000E100E0FC06FFBD084B9A6810B55AB1D4
:1078100050B9EFF3108172B6054A1C6814605C68B9
:107820005460986001B962B610BD00BF0C780020AA
:1078300000E100E037B550E8023F1FFAA3F5C48825
:10784000A54202BFBFF32F8F00220DE0C48925445B
:107850008489A54228BF2D1BC3EA054540E8025490
:10786000002CE8D14FF001028DF803200193019B19
:107870009DF803200B6002F0FF0322B14B880068E3
:10788000184403B030BD1846FBE70A884B889A427B
:1078900009D150E8022FC2EA224240E80223002B1D
:1078A000F7D1012070470020704701F01F024B09FB
:1078B0000121914000EB830000F01EB801F01F038E
:1078C00001229A404B0900EB8300D14300F02CB811
:1078D0004B0901F01F0150F82300C84000F00100DF
:1078E000704710B5034653E8000F0A4643E80024EA
:1078F00094F0000FF7D110BD10B5034653E8002FE8
:1079000042EA010043E8000494F0000FF6D110BDF4
:1079100010B5034653E8000F00EA010243E80024D3
:1079200094F0000FF6D110BD10B5034653E8002FB8
:1079300002EA010043E8000494F0000FF6D110BD04
:1079400010B5034653E8002F02EB010043E80004A2
:1079500094F0000FF6D110BD10B5034653E8002F88
:10796000A2EB010043E8000494F0000FF6D110BD33
:107970000121FFF7C1BF0021FFF7CABF10B590B1C9
:10798000D0E9012301689B1ADBB20A60013BDBB23C
:10799000FF2B026802D10020107110BD11684C1C31
:1079A00014600B70F2E70E20F7E737B505460024A8
:1079B0000DF107008DF80740FFF702FF2A686B689A
:1079C000116899420ED9481E106011F8014CEB68FD
:1079D000A98A01FB0434AB6811791B1ADBB2994206
:1079E00038BF13719DF80700FFF70EFF204603B064
:1079F00030BD37B5054600230DF107000C468DF864
:107A00000730FFF7DDFE2A681368591C1160E9682A
:107A1000641AA98AB4FBF1F41C709DF80700FFF703
:107A2000F3FE03B030BD826810B504462AB1436945
:107A30000168006998470023A36010BD0EB403B528
:107A4000039921B104AB01AA019300F06FF802B0D1
:107A50005DF804EB03B07047826830B40468551CCD
:107A60008560A154D0E901329A4202D330BCFFF7BD
:107A7000DABF30BC704700002DE9F84F9846DDE9C9
:107A80000A43154682460F460A464FF00109AA42AC
:107A90000FD2C14538BFC14613F0010B01D16CB9FB
:107AA00000240126B8F1010F1BD908F1FF386E43FD
:107AB000F8E709F10109B2FBF5F2E8E79B070ED5FB
:107AC000B8F1000F0CBF30262026A145E9D2013CB9
:107AD00031465046FFF7C0FF002CF6D1E0E72026E4
:107AE000F3E7B7FBF6F39D42E1D9DFF83C80B7FB43
:107AF000F6F3504618F8031006FB1377FFF7ACFFB8
:107B00003346AB42B6FBF5F6F1D2BBF1000F02D023
:107B10000CB1A14501D3BDE8F88F20215046013CAE
:107B2000FFF79AFFF4E700BFA8D302002DE9F74F53
:107B3000054617468846002900F0428118F8011BC7
:107B400049B92B7B002B00F03B81284603B0BDE8F0
:107B5000F04FFFF768BF252940F0B780002698F85E
:107B600000302D2B424608F1010823D0302B24D0C1
:107B70002B2B25D000242A2B02F1010123D13B68B5
:107B80001A1D1B683A601C440A4613782E2B26D116
:107B900001324FF0000A104610F8011BA1F1300C21
:107BA000BCF1090F1DD80A2303FB0A13A3F1300A05
:107BB0000246F0E746F00106D1E746F00206CEE7BE
:107BC00046F00406CBE711F8013CA3F13000092888
:107BD000DBD80A2202FB0434303C0A46CBE74FF0E4
:107BE000000A12F8011B01F0FB0068289046F8D04B
:107BF000782909D86F290CD8632962D022D8252981
:107C000063D0582900F0888098F80030002B95D177
:107C100097E770390829F7D801A353F821F000BF7E
:107C20009B7D0200097C0200097C0200297D020084
:107C3000097C0200077D0200097C0200097C020029
:107C4000197D0200642901D06929DDD13A68D2F892
:107C50000090111D89EAE9723960A2EBE9724FF0D8
:107C6000010B092A35DCD34538BFD3462CB1B9F115
:107C7000000F01DB720700D5013CB30702D5BAF152
:107C8000000F03D0F00701D44CBB0024B9F1000F62
:107C90002DDAC9F100092D212846FFF7DDFE06F097
:107CA0000302022A04D1BAF1000F01D11CBB002447
:107CB000CDE9004653460A2249462846FFF7DCFE36
:107CC000A2E73B681A1D19783A602846FFF7C4FE00
:107CD0009AE70A230BF1010BB2FBF3F2C1E7A345CC
:107CE000D4D220212846013CFFF7B6FECCE771072D
:107CF000D5D52B21D0E7A345DAD230212846013C47
:107D0000FFF7AAFED2E73968CDE900460A1D3A60BE
:107D100053460A220968D0E739680A1D3A60CDE95E
:107D2000004653461022F5E73B681A1D3A6016F0EC
:107D30000106D3F8009028D1B9F1000F03D04846CE
:107D400005F049F90646B44200D904BB09F1FF39F0
:107D500019F8011F00293FF457AF2846FFF77CFEB2
:107D6000F6E728460136FFF777FE19F806100029D6
:107D7000F7D1A642BFF448AF002C3FF445AF202115
:107D80002846013CFFF768FEF3E70026EDE72021D7
:107D90002846013CFFF760FED5E73B681A1D3A60B4
:107DA000302128461C68FFF757FE78212846FFF748
:107DB00053FE00220823CDE90032214610227CE741
:107DC00003B0BDE8F08F00BF70B550B90E4D0F4C39
:107DD0000026641B1423B4FBF3F4B44208D1002042
:107DE00010E00368002BF1D0BDE87040DB69184754
:107DF0002B6813B901361435EFE7DB69284698473D
:107E00000028F7D070BD00BF4470002044700020EF
:107E100029DF704728DF704770B503689E6886B019
:107E200004460D466EB114220021684605F07EF826
:107E3000A3680593237901952BB1012B0DD06846DA
:107E4000B04706B070BD01238DF80030236902935E
:107E5000E368039363690493F1E702238DF800302C
:107E6000E3681B030293F5E7034B187A0122B0FA8B
:107E700080F05A74400970471878002070B5244C7F
:107E8000244E237A25463BB923492448FFF7D2FCE8
:107E9000306008B9606070BD022334682B722379AA
:107EA00073B1012B24D020460321FFF7B5FF002337
:107EB0002B726B6018491948BDE87040FFF7E5BCAC
:107EC000D4E90523D21AB2F5805FD4E9031028BFA4
:107ED0004FF480529208012A38BF012219441844F5
:107EE000FFF796FF50B11128DDD101232B72D2E7A5
:107EF000D4E903031844FFF78DFFF3E72B7C002B35
:107F0000C9D10146BDE87040022000F009B800BFA9
:107F100018780020307800202C7800206470002031
:107F200038B5831E012B45D8234C237A002B41D032
:107F3000022B09D1032830D0204B00221B68E260BD
:107F40001A793AB1012A22D0637C7BBBBDE8384064
:107F5000FFF794BFD3E905128D1AB5F5805F94BF82
:107F6000521902F580529A619142EDD102284FF0E8
:107F7000000308BF19462372104B18BF0D21186863
:107F8000FFF74AFF0E490F48FFF77FFCDCE71A694D
:107F900001321A615B699A42E7E7E3680133082B13
:107FA00001D8E360D0E70023E360DFE7BDE83840B5
:107FB00004F02CBC38BD00BF1878002030780020B9
:107FC0002C7800206470002000F0FD03012B08D104
:107FD000044B00225A74421E504250411874FFF75D
:107FE0004DBF704718780020FFF7C8BCF8B5467938
:107FF0000146721E0546002393422D6803D30024D8
:10800000A64202D8F8BD0133F6E70F682846FFF70D
:10801000F0FC01343946F3E72DE9F843868ACD1C9C
:108020000746FFF7C2FC043E35440446B5FBF6F5AF
:10803000F0B14FF48073EDB28380C680013D0760DC
:1080400081464FF00008A84512D23846FFF7ADFC34
:10805000064648B163790133637108F10108C9F834
:10806000000007608146EEE72046FFF7BFFF344679
:108070002046BDE8F88301210430FFF761BC10B54C
:10808000012104460430FFF767FC10F0FF0F04D114
:108090002046BDE81040FFF7A9BF10BD2DE9F84309
:1080A000B0F8068004330546B3FBF8F40F461646D5
:1080B00008FB14333CB9A8EB0309B14528BFB1460E
:1080C00026B9BDE8F8832D68013CF3E70433E818CE
:1080D000A6EB09064A46391904F0FFFEB0454C44A8
:1080E0002D68C1464FF0000328BFB146E8E72DE9EF
:1080F000F843B0F8068004330546B3FBF8F40F46A6
:10810000164608FB14333CB9A8EB0309B14528BF58
:10811000B14626B9BDE8F8832D68013CF3E7043386
:10812000E918A6EB09064A46381904F0D6FEB04510
:108130004C442D68C1464FF0000328BFB146E8E724
:1081400041DF7047064B10B500241C70054B1C60C6
:10815000BFF35F8F0449054800F030F8204610BD9A
:108160003C78002040780020DCD3020034780020E6
:1081700007B500230DF107008DF80730FFF720FB4E
:10818000F1EE103A23F09F03E1EE103ABFF35F8F58
:10819000094B4022C3F884219DF80700FFF734FB08
:1081A00004F044FB20B1FFF7CBFF03B05DF804FB04
:1081B00020BF40BF20BFF8E700E100E00B684A683D
:1081C0004360934208BF0023016008BF43607047CB
:1081D000436843B10268916852680B44934243601C
:1081E00004BF00234360704710B50D49A1F5947298
:1081F000914201D800200FE08C1AE30F03EBE40357
:108200005B1002EBC30452F83330834205D802D22C
:1082100004F10802ECE7606810BD2146E8E700BF02
:10822000E0D8020008B5FFF7DFFF024B002808BFC7
:10823000184608BDA2D702000C4B1B78062B10D1A4
:108240000B4B1B681A070CD10A4B186800F0F0039F
:10825000302B08D000F0E000A0F140035842584114
:108260007047002070470120704700BFE00F00F00A
:10827000E40F00F0E80F00F0094B1B78062B0CD13F
:10828000084B1B681A0708D1074B186800F0F0006C
:10829000A0F130035842584170470020704700BF9A
:1082A000E00F00F0E40F00F0E80F00F008B5FFF772
:1082B000C3FF28B1604B614A1B68C3F304231360FA
:1082C000FFF7DAFF10B15E4B5E4A1A60FFF7B4FFAA
:1082D00028B15D4B5D4A1B68C3F342331360FFF75F
:1082E000CBFF20B15A4AD36823F08073D360FFF7E5
:1082F000A3FF40B14FF080430022C3F80C21C3F824
:108300001021C3F83825FFF7B7FF10B1514B0322F6
:108310001A60FFF7B1FF40B14F4B05221A600122EE
:108320009A6700229A603F225A604C4B1B78062BBA
:1083300050D14B4B1B6819074CD14A4B1B6803F0BB
:10834000F003502B46D14FF08052474BD2F8041423
:10835000C3F82015D2F80814C3F82415D2F80C1469
:10836000C3F82815D2F81014C3F82C15D2F8141439
:10837000C3F83015D2F81814C3F83415D2F81C1409
:10838000C3F84015D2F82014C3F84415D2F82414C9
:10839000C3F84815D2F82814C3F84C15D2F82C1499
:1083A000C3F85015D2F83014C3F85415D2F8341469
:1083B000C3F86015D2F83814C3F86415D2F83C1429
:1083C000C3F86815D2F84014C3F86C15D2F84424E9
:1083D000C3F87025FFF730FF28B1244B244A1B68EF
:1083E00003F04F031360FFF727FF48B14FF08043BE
:1083F000D3F80024D20744BF6FF00102C3F8002471
:108400001C4B1B68062B08D11B4B1B68062B01BF9E
:108410001A4A136843F480631360194AD2F888300B
:1084200043F47003C2F88830BFF34F8FBFF36F8FF0
:10843000144B154A1A6008BD240300104035014052
:1084400074C007400DF0ADBA440200103C05004076
:10845000F0ED00E0A005004010560040E00F00F0F5
:10846000E40F00F0E80F00F000C0004058020010D8
:10847000E40E004030010010340100103C170040B1
:1084800000ED00E0787000200090D003054A4FF026
:10849000A043105CD3F8043523FA00F0C04300F089
:1084A00001007047E4D80200044B1A5C012393409A
:1084B0004FF0A042C2F80C35704700BFE4D802006C
:1084C000044B1A5C012393404FF0A042C2F80835D8
:1084D000704700BFE4D8020008B50020FFF7F0FFA6
:1084E0000120FFF7EDFF0220FFF7EAFFBDE808409B
:1084F0000320FFF7E5BF08B50020FFF7D5FF0120F7
:10850000FFF7D2FF0220FFF7CFFFBDE808400320AE
:10851000FFF7CABF074A4FF0A041105CD1F80435FD
:108520000122824022EA03001340C1F80805C1F885
:108530000C357047E4D80200054A4FF0A043105CA8
:10854000D3F8103523FA00F0C04300F00100704763
:10855000E0D802000D2809D00E2809D00F2809D034
:1085600010280CBF03204FF0FF30704700207047E9
:108570000120704702207047014B185C704700BF14
:10858000E0D80200C20708B501460CD54FF0A04361
:108590000322C3F84427C3F84827C3F84C27C3F87D
:1085A0005027FFF799FF8B070AD54FF0A0430C2205
:1085B000C3F83427C3F83827C3F83C27C3F840274B
:1085C00008BD000038B5074C051E04F1080318BFAC
:1085D0001C4623682BB11A6822605B6828469847BE
:1085E000F7E738BD4C78002020B9054B01225A70BE
:1085F000FFF7E8BF012802D1014A9070F8E7704701
:108600004478002020B9034B01225A70FFF7DABFEB
:10861000704700BF4478002038B50B4C237883B9ED
:108620000A486360A3602361E36000F0D3F8054665
:1086300004F0FCF808B900F0D9F8012323702846AB
:1086400038BD8525FBE700BF44780020E98502009E
:1086500037B50B4C00230DF107008DF80730FFF7FD
:10866000AFF8E368013BE360E56815B900F0D2F8C4
:10867000A5709DF80700FFF7C7F803B030BD00BF35
:1086800044780020012813B508D003281CD018B95D
:10869000104B0122C3F8802002B010BD0E4C002305
:1086A0000DF107008DF80730FFF78AF823780BB932
:1086B000FFF7B2FFE3689DF807000133E360012391
:1086C000A370FFF7A1F8E7E700F090F8FFF7C0FF0D
:1086D000E2E700BF00E100E0447800201FB5037826
:1086E0008DF8003043680193037A8DF80830C36831
:1086F000054A0393054B684653F8213052F8211080
:10870000984705B05DF804FB587800205C7800209D
:108710001FB503788DF800304368019383688DF8A6
:108720000830C368054A0393054B684653F8213067
:1087300052F82110984705B05DF804FB58780020E6
:108740005C780020F0B5194B90F800C091F81DE05E
:1087500043F82C20164B16460A6943F82C20154B7B
:1087600003F80CE00C4607460FCC89B06D460FC5E8
:1087700094E80F0085E80F00CDF810C0BEF1000F9F
:1087800009D0002E0C4A694608BF3246381D00F059
:1087900003FE09B0F0BD002E084A694608BF324604
:1087A00007F10C0000F0E0FBF3E700BF5C7800206D
:1087B0005878002060780020DD86020011870200D2
:1087C00000F18040002382B0036003680193019BA5
:1087D00002B07047044A137923B9012110609180D7
:1087E000184670478520704764780020084B1A6847
:1087F000D20706D4E02283F800230122C3F88021A7
:108800001A604FF080430122C3F81825704700BF5B
:1088100000E100E0044B01221A604FF08042D2F8E0
:108820001834DB03FBD470470C000040124B1B686C
:1088300010B573B14FF48070FFF7C2FF4FF0804363
:108840000122C3F808230D4B587910B95A711B68DF
:1088500098470B4B1B6873B14FF48270FFF7B0FF62
:108860004FF080430222C3F80823044BBDE81040B8
:108870001B680120184710BD0001004064780020EB
:108880000401004000F1804000F5C040002382B0A8
:10889000036003680193019B02B07047800000F100
:1088A000A040D0F8002722F44032C0F80027D0F8CA
:1088B000003743EA0141C0F800177047054B4FF0FD
:1088C000FF32072843F8202084BFC01880F84820D2
:1088D000704700BF6C78002010B5184C94F85830E1
:1088E00053BB04F130032021FF22013911F0FF01B5
:1088F00003F8012BF9D1C8B2FFF7E0FF01310C29D1
:10890000F9D1042200210E4804F010FB0D4BE022A7
:1089100083F806234022C3F880214FF4BE701A600A
:10892000FFF7B0FF084B4FF00042C3F804230123C8
:1089300084F85830002010BD0820FCE76C78002037
:10894000C078002000E100E000600040034B93F895
:108950005800003818BF0120704700BF6C78002015
:1089600030B52E4B1A1892F93040013453D18C781F
:10897000002C4CD01C46002254F8045B013541D138
:108980001C1884F83020002443F82240920002F1A1
:10899000804202F5C0420B78D2F810554C7825F48D
:1089A00098151B04240525F4F85504F4801403F4E9
:1089B0004033C2F8105523430402D2F8105504F492
:1089C000F85423432B43C2F810354A780123012A77
:1089D0004FF0A04203FA00F30CBFC2F80835C2F80A
:1089E0000C3500F5E073032142F82310C2080C494E
:1089F000012300F0070003FA00F08B5C1843885451
:108A0000002003E00132082AB6D1042030BDFE2345
:108A100082F83030D9E70820F8E700BF6C780020F2
:108A2000C0780020054B184490F930008000C0B297
:108A300000F1804000F5C040704700BF6C78002016
:108A4000F0B5364D2C1894F93040002C64DA8C784F
:108A5000C4F34004002C0BBF082300230C26082677
:108A6000B34201D10420F0BD55F8237001373FD146
:108A70002E1845F8232086F8303014B9EA1882F809
:108A800048008A78540713D4D60733D5820002F100
:108A9000A042D2F8004724F00204C2F80047204E5A
:108AA000C20800F007070124BC40B75C3C43B45443
:108AB0008A780C7812F0020225D09B0003F18043E3
:108AC00003F5C0430202D3F8101521F4473121F415
:108AD0004071C3F810152404D3F8101502F4F852AD
:108AE00004F4403422430A43C3F810250020BAE7B7
:108AF0000133B5E74C7800F5E0724FF0A046A400D2
:108B000046F82240CBE7083B2B4493F8501041EA4B
:108B1000841483F85040E9E70820A4E76C7800202B
:108B2000C078002038B51F4C251895F93020072A49
:108B300016DD224492F848309B09032B0BD14FF0ED
:108B4000A043D3F81015C14001F001010231BDE886
:108B50003840FFF7A3BE012B0CBF02210321F6E72B
:108B6000D3B2072B1CD8930003F1804303F5C04315
:108B7000D3F8100540F00100C3F8100502F14000E1
:108B8000800080B2FFF77EFE51B195F9303054F885
:108B900023302BB1012303FA02F2034BC3F8042361
:108BA00038BD00BF6C780020006000404FF0A0434B
:108BB000D3F8103523FA00F000F0010070470000F0
:108BC0002DE9F04F87B000245A4D03944FF4807282
:108BD000012102F1804303F5C04390B21B68012BD1
:108BE00006D1D5F804330B4202D0FFF74BFE0C43FD
:108BF0000432B2F5907F4FEA4101EAD14E4B1B6837
:108C0000012B0AD14FF4BE70FFF73CFE4FF0A0439A
:108C100044F00044D3F81035039314F0FF0F1AD03A
:108C2000464F00250126344210D0AB0003F18043AB
:108C300003F5C043D3F81005D3F8101557F82530C5
:108C400023B1C1F30141C0F3042098470135082D39
:108C50004FEA4606E7D1002C65DA00214FF0FF33DA
:108C6000CDE90413354D01274FF0000A344ED146AB
:108C70004FF0A04816F9013B5A1C45D0C3F3C2017E
:108C800006AA5018DCB210F8042C03F03F0B03F0D6
:108C9000070307FA03F31A4236D005EB0B02A409C7
:108CA00092F9302055F8222052B9032C2CD10DF125
:108CB000100E1EF801C04CEA030C0EF801C001E0D2
:108CC000032CF4D00BF5E07110F80C0C58F82110BF
:108CD0001842C1F3014105D0022915D1032C0FD14F
:108CE000214604E003290FD1032C09D10221584663
:108CF000019209F10109FFF7D1FD019A5FFA89F9A3
:108D000012B12146584690470AF1010ABAF1040F00
:108D1000B0D1B9F1000F06D04FF0A043039AD3F8B9
:108D20001035934202D107B0BDE8F08F0393049B46
:108D3000059399E7006000407C6100406C7800205A
:108D4000BC780020014B1B68184700BFC878002082
:108D50000E4B984237B50C4602D0002003B030BD10
:108D600000230DF107008DF80730FEF729FD084BB1
:108D70001D7915B901221C601A719DF80700FEF7D4
:108D800043FD002DE9D01120E8E700BF002000409E
:108D9000C87800200023435082B043580193019BC0
:108DA00002B070470A4610B54FF48E71FFF7F2FF1C
:108DB000136A9168C95C136A01331362C0F81C1509
:108DC00010BD024608B500684FF49271FFF7E2FF4C
:108DD0004FF484711068FFF7DDFF136801221A60F9
:108DE00008BD8B690A4610B54FF4847123B9FFF7AB
:108DF000D1FFD0F8183510BDFFF7CCFF536AD1680A
:108E0000D0F81805C854536A01335362F3E70000E1
:108E10001FB501238DF80030044BCDE90110D3E9D3
:108E200000126846904705B05DF804FBD07800203A
:108E300030B54B48D0F8043313F4007F85B00546B5
:108E40004DD0D0F82431002B49D04FF49271FFF768
:108E5000A1FF4FF40173C0F80833424B93F8292067
:108E60000AB9012242603E4902228DF80020D1F861
:108E70008024C1F8802403929A690292DA680192F0
:108E80000022C3E906226846D3E90012904734481D
:108E9000D0F81C315BB133490A6A4B699A420A46E1
:108EA0004AD291F82830002B46D1FFF77BFF2C489F
:108EB000D0F844318BB14FF4A271FFF76BFF294B0F
:108EC00093F829200AB1012202609A692AB100228E
:108ED000586AD9689A61FFF79BFF05B030BDD5F895
:108EE00004335B07D3D5D5F80831002BCFD01D4C08
:108EF0001B482146FFF775FF636AA2699A42234621
:108F0000C5D1E269E1684AB12369E3600023606A80
:108F1000A261E3616362FFF77BFFB8E794F8292061
:108F20000AB901226A600E4A4FF40170C2F80803C0
:108F30000022586A9A61EEE74FF48E710848FFF7F5
:108F400029FF51690029B2D00023029191688DF860
:108F50000030019153616846D2E900139847A6E7B3
:108F600000200040D07800202DE9F8435A4B0579C5
:108F700091462C2202FB0532064692F82A200C4626
:108F80009846002A40F0A48054490068FFF7E0FEAC
:108F90000746002840F09E8021683368481C0BD0AB
:108FA0004FF0A04001228A40C0F8082501F5E07288
:108FB0004FF0030C40F822C06068421C1FBF00F550
:108FC000E0724FF0A04C4FF0000E4CF822E0A26986
:108FD000C3F8242594F814C0627DBCF1010F4CEA5B
:108FE0000202C3F86C25C3F81405C3F80C151DD193
:108FF000A1684A1C1FBF01F5E0724FF0A0404FF07E
:10900000000C40F822C0E268501C0BD04FF0A04C7E
:1090100001209040CCF8080502F5E0704FF0030EF7
:109020004CF820E0C3F80825C3F810152C236B4337
:1090300008EB0302C2F80490226948F80320B9F152
:10904000000F32D03068227F4FF48E71FFF7A2FEFE
:1090500030684FF4A271FFF79DFE33682049C3F8D2
:109060000413190B43F30733002BA8BF03F160402F
:109070004FEA5313BCBF01F00F041A484FEA4212E3
:10908000A8BF00F561404FEA8303D2B203F1604309
:10909000B4BF025580F8002303F5614301F01F01BE
:1090A00001228A40C3F880211A6033680422C3F881
:1090B00000252C2303FB05830022C3E9062283F845
:1090C00029205A61012283F82A203846BDE8F88316
:1090D0000827FAE71127F8E7D0780020318E020040
:1090E0008000020014ED00E02DE9F843204B0779E1
:1090F0004FF02C0909FB0734054666699846002E97
:1091000033D100686261A16026624FF48E7184F8E9
:109110002860FFF73FFE2868012383602146FFF7A0
:1091200041FE6368A14683B92868226A63699A424E
:1091300011D32B68D3F81C21002AFBD00122DA605E
:109140002C2303FB078300225A613046BDE8F883D5
:1091500094F828303BB9D0F81C31002BF8D04946A0
:10916000FFF720FEE1E70F26EAE71126EDE700BF53
:10917000D07800200379044A2C2101FB032358698D
:10918000003818BF01207047D07800202DE9F8433F
:10919000394F05792C2303FB057306465C6824B11F
:1091A00003684FF40170C3F808032C2303FB057315
:1091B000986950B1D86900283ED024B133684FF483
:1091C0000172C3F80423112433E09A61D960586214
:1091D000D8612C2303FB057393F829301BB910B910
:1091E0003046FFF7EEFD4FF02C0909FB057830689B
:1091F000D8F80430002B34D14FF4A271C146FFF7E8
:10920000C9FD3068D0F82431D0F80821D0F84441A5
:10921000B2B90CB9002BF4D02C2202FB0575002248
:10922000AA6123BB2CBB95F8291033680122B1B188
:109230001A602046BDE8F8831961DA610120C8E7A9
:10924000002BE9D1002CE7D14946FFF7CAFDD8F839
:109250002430D8F818209A42D3D82346DCE75A6045
:10926000E7E74FF40173C0F804330024E1E7032477
:10927000DFE70F24DDE700BFD07800200023435054
:1092800082B043580193019B02B070471FB5012380
:109290008DF80030054B8DF8080001916846D3E940
:1092A0000012904705B05DF804FB00BFFC78002079
:1092B0007FB5374AD2F82461002E47D010464FF4CC
:1092C0009271FFF7DBFF02238DF80030D2F8803473
:1092D000C2F880340393D2F83C358DF808302D4B1A
:1092E000DA6801920022C3E906226846D3E9001237
:1092F00090472748D0F844316BB14FF4A271FFF783
:10930000BDFF244B9A6932B100229A61D0F83C0526
:10931000D968FFF7BBFF1E48D0F82031A3B14FF446
:109320009071FFF7ABFF1B4B5A696AB1D0F84C152F
:109330008DF80810002299688DF8002001915A617B
:109340006846D3E90012904704B070BDD2F81031DE
:10935000002BCED04FF488711046FFF78FFF0D4BD6
:10936000D2F83C0599698842C3D1DC69D96864B1F7
:10937000D2F8005225F02005C2F800521A699C610B
:10938000DA60DE61FFF782FFB3E79C61FAE700BFB6
:1093900000200040FC7800202DE9F8435E4B067960
:1093A0009146242202FB0632044692F820200D4604
:1093B0009846002A40F0AC8058490068FFF7C8FC86
:1093C0000746002840F0A68029682368481C0BD077
:1093D0004FF0A04001228A40C0F8082501F5E07254
:1093E0004FF0030C40F822C06868421C1FBF00F514
:1093F000E0724FF0A04C4FF0000E4CF822E0AA694A
:10940000C3F8242595F814C06A7DBCF1010F4CEA1D
:109410000202C3F86C25C3F80C15C3F814051DD15E
:10942000A9684A1C1FBF01F5E0724FF0A0404FF041
:10943000000C40F822C0EA68501C0BD04FF0A04C42
:1094400001209040CCF8080502F5E0704FF0030EC3
:109450004CF820E0C3F80825C3F810152423734303
:1094600008EB0302C2F804902A6948F80320B9F116
:10947000000F3CD020682A7F4FF48871FFF7FEFE72
:1094800020684FF49071FFF7F9FE20684FF4927155
:10949000FFF7F4FE20684FF4A271FFF7EFFE236898
:1094A0001F49C3F80413190B43F30733002BA8BF5C
:1094B00003F160404FEA5313BCBF01F00F05194898
:1094C0004FEA4212A8BF00F561404FEA8303D2B2CF
:1094D00003F16043B4BF425580F8002303F56143B4
:1094E00001F01F0101228A40C3F880211A6023681D
:1094F0000822C3F80025242303FB06830022C3E9C6
:1095000006225A61012283F820203846BDE8F883FC
:109510000827FAE71127F8E7FC780020B19202004B
:109520001003020014ED00E001F06043B3F1005FAE
:109530002DE9F041064632D11B4B0779242505FB66
:10954000073598466C6964BB6A610068A9604FF48E
:109550009071FFF793FE4FF4AC713068FFF78EFE09
:1095600033686A69A968C3F84415C3F8482501221D
:109570009A606A6862B9D3F82021D3F8584152B989
:10958000002CF8D00F24242303FB078700237B61E2
:109590002046BDE8F081002C18BF0F24F3E710240B
:1095A000F6E71124F4E700BFFC7800200379044AB1
:1095B000242101FB03235869003818BF012070479C
:1095C000FC780020F8B501F06043B3F1005F044679
:1095D0000F465ED10379304D242101FB03514968C8
:1095E00021B100684FF40476C0F80863242000FB22
:1095F00003539E6956B1D869002839D021B1236838
:109600004FF40472C3F80423112030E09A61DF6044
:10961000DE6120684FF48871FFF730FE20684FF458
:10962000A271FFF72BFE2368C3F83475C3F8382501
:1096300016BB01221A602179242202FB01525268D2
:109640000ABBD3F81041D3F84421D3F824011443C2
:1096500002D10028F5D02246242303FB0155002324
:10966000984218BF03209A42AB6118BF0F20F8BD83
:109670001F61DA610126CCE7D3F8002242F0200214
:10968000C3F80022D7E74FF40472C3F80423002084
:10969000EDE71020EBE700BFFC780020034B1878C3
:1096A00010B901221A707047852070472079002078
:1096B0002DE9F74F4FF0000ADFF89890204F06464B
:1096C0000425D0465FFA8AFB01240DF1070004FA55
:1096D0000BF48DF80780FEF773F814EA090F08D031
:1096E0003B6814EA030201BF23433B6086F800B0E5
:1096F00015469DF80700FEF787F8D5B9114B1249BA
:10970000188800045A4640F00300FDF71FF90D4B7E
:1097100028461C88FEF786FD240444F00304034613
:109720000A4A0B492046FDF71AF9284603B0BDE85E
:10973000F08F39EA04090AF1010AC3D1E7E700BF53
:1097400024790020147000200AD902003FD90200B9
:1097500021D90200FFFF01000220FEF7DBBE00005E
:109760002DE9F04780460D46FEF7F4FE0328044637
:1097700010D8012D10D0022D30D05DB91A48FDF758
:10978000F5FE1A4B04EB440213449E78184B1B5D04
:10979000B34219D0BDE8F087144D00EB4002A91880
:1097A000AE5C4A78470052B1DFF84C900E484A460A
:1097B0004FF40041FDF792FE08B989F800803B198B
:1097C0002B449A780A4B1A55002EE3D0094B1B689C
:1097D000002BDFD03046BDE8F047184700EB4004CF
:1097E000024804446678EFE74C7900208C79002029
:1097F000A5790020A0790020287900200078022196
:10980000FFF7AEBF08B5094B1B7853B10020FEF738
:1098100057FE0120FEF754FEBDE808400320FEF786
:109820004FBEBDE80840FEF757BE00BF29790020B3
:10983000F8B5794C237805461BB100232370FFF758
:10984000E1FF172D00F28480DFE805F00C13133FD1
:109850005061727C84898489919696969696C0C54B
:10986000CDD5E0E0FFF7CEFF6C4B00241C70204606
:10987000F8BD0020FEF70AFEF8B10020FEF720FE3A
:10988000022D0CBF4FF4E1614FF47A61634B1D7000
:109890004FF400404FF4FA740025E0FB01454FF40B
:1098A0007A7200232046294603F044F9002201463B
:1098B000BDE8F8405A48FDF711BEFEF7F5FD022D50
:1098C0000CBFC8214FF4C871E0E70020FEF7DEFDB1
:1098D00040B10020FEF7F4FD4FF448714F4B0322D6
:1098E0001A70D5E7FEF7E0FDC821F7E70020FEF784
:1098F000CDFD38B10020FEF7E3FD4FF47A61474B10
:109900000422EDE7FEF7D0FD4FF4C871F7E7002021
:10991000FEF7BCFD48B10020FEF7D2FD3F4B05220B
:109920001A7041F69A110022C2E7FEF7BDFDF5E775
:109930000020FEF7EFFD394B06221A70002240F698
:10994000CD41B5E70020FEF7AFFD344B07221A707A
:1099500000248CE701202070FEF7DCFDEEE70120FB
:109960002070FEF7D7FD00224FF48041A0E7FEF7FC
:10997000C2FD2A4B0C22EAE72A482B4EFDF7F6FDE2
:10998000D5F1110504461CD0D8B9012D13D0C82338
:109990005D434FF400474FF4FA7000214FF47A72A0
:1099A0000023C7FB050103F0C5F8224601461D4808
:1099B000FDF794FD04460220FEF776FD0123337087
:1099C00055E70220FEF77CFD0023F8E7FFF71AFFBA
:1099D000124B1222BBE7FFF715FF0020FEF764FDD4
:1099E0000E4B1322B3E7FFF70DFF0120FEF75CFDDE
:1099F0000A4B1422ABE7FFF705FF0020FEF754FDEA
:109A00000120FEF751FD054B1522A0E7FEF773FD7F
:109A1000024B1D709CE700BF9C790020A4790020B8
:109A20006C7900202C79002029790020044B1B68D8
:109A3000DB0703D5034B1878FFF7FABE704700BF6A
:109A400098790020A4790020032801D8FEF774BD7E
:109A500000207047044B1B6813F0010301D0FFF78F
:109A6000E7BE1846704700BF9879002038B51C4BF8
:109A700018601C4B10F00204054619601AD01A4BEE
:109A80001A480E221A700F22DA7010229A711122CF
:109A90005A72042140F26662FDF7A2F9044648B901
:109AA000FDF7F2F9044628B90146114A1148FDF7BD
:109AB00003FD0446EB0711D50120FEF763FD6CB9E9
:109AC00021460D4A0D48FDF7F7FC044630B9BDE8C4
:109AD00038400B4A0B480121FDF7EEBC204638BD4B
:109AE00098790020A07900208C79002058D90200B4
:109AF000FD9702007CD902002D9A020080D9020055
:109B00005997020078D90200032811D8012A0AD1F6
:109B100001290FD100F10E02D2B20D4B00EB400033
:109B20001A54002070470129F7D0022904D049B106
:109B3000072070470022F8E7054B00EB400018446F
:109B40004270EEE7024B00EB400018448270E8E7F9
:109B50008C790020032808B512D8FEF70DFD80008F
:109B600000F1A040D0F8003723F44033C0F80037AC
:109B7000D0F8003743F44033C0F80037002008BD68
:109B80000620FCE708B5012202210020FFF7BCFFF8
:109B900008B1072810D1072202210120FFF7B4FFE6
:109BA00008B1072808D100210A220846FFF7ACFFB8
:109BB00010B1072808BF002008BD00000388102B43
:109BC00010B502D0112B1ED010BD1A4C2168B1B9AE
:109BD00001220846FFF798FF08B1072824D1072281
:109BE00002210120FFF790FF08B107281CD10422B1
:109BF00002210020FFF788FF08B1072814D123684D
:109C000001332360E0E70B4A1368013B1360002B2C
:109C1000DAD1FFF7B7FF0028D6D0074B1B68002B1F
:109C2000D2D0BDE810401847034B1B68002BE6D08C
:109C30009847E4E7B0790020AC79002008B500200F
:109C4000FFF788FF08B1062806D10120FFF782FF41
:109C500010B1062808BF002008BD00000D4B10B54C
:109C600018600C4629B10120FFF7EEFE40B1022337
:109C70002370094B1B6853B9BDE81040FFF782BF42
:109C8000FFF7E2FE08B10B23F2E72070F1E70020B6
:109C900010BD00BFAC790020B07900206DDF7047A7
:109CA00076DF70477ADF70477CDF70477FDF704771
:109CB0008FDF704790DF7047B1DF704767DF704715
:109CC00033DF7047FDF7F6B808B50020FFF7C2FE96
:109CD00008B1FDF7EFF8FFF7B1FF08B1FDF7EAF8BB
:109CE000FFF7EEFF18B1BDE80840FDF7E3B808BD87
:109CF00008B50B4B0B4819784FF6FE7202F048FC82
:109D000030F008020BD020F00202112A07D043F2F3
:109D10000142904203D0BDE80840FDF7CBB808BD32
:109D2000B97B0020747E00200B4B4A881B889A4226
:109D300010D10A8840F677239A420BD1074A8B88C4
:109D400010880749033B9BB200041A4640F0030009
:109D5000FCF705BE704700BFA870002014700020FB
:109D600084D9020008B503784BB9054B3B2118880C
:109D7000FFF796FF18B1BDE80840FDF79BB808BD96
:109D8000A8700020072808B513D00A280DD0042891
:109D900019D10D4B13211888FFF782FF30F008030B
:109DA00011D0BDE80840FDF785B8BDE80840FFF7D1
:109DB0008BBF054B1A884FF6FF739A4203D10348B5
:109DC00001F0B6F9EAE708BDA8700020BC7D0020CC
:109DD00008B548B103280BD10220FFF73BFE38B18C
:109DE000BDE80840FDF766B8BDE80840FFF76CBF66
:109DF00008BD0000F0B5057891B0DDB9046923789D
:109E0000552B19D16378702B14D13A4B6A4603F164
:109E10001006144618685968154603C50833B3423E
:109E20002A46F7D1002514F8010B0135FDF7A0FCF7
:109E3000102DF8D111B0F0BD532B28D163786F2BC2
:109E4000F8D12D4A106851686B4603C31189927A84
:109E500019809A70294635220DF10B0003F066F83F
:109E60000A22A35C0DF802300A2B154602F101020A
:109E7000F7D1002405E010AA134413F8400CFDF7B5
:109E800077FCE3B29D4204F10104F4DAD2E7502BEF
:109E9000D0D163786C2BCDD1184B6A4603F10807FB
:109EA000164618685968154603C50833BB422A464A
:109EB000F7D118681B79286033222B7100210DF12E
:109EC0000D0003F033F80C22A35CB3540A2B1546A3
:109ED00002F10102F8D1002405E010AA134413F89E
:109EE000400CFDF745FCE3B29D4204F10104F4DAB5
:109EF000A0E700BFA0D902007CDA0200BCDA0200B1
:109F00002DE9F743047824B1012C5FD003B0BDE8FC
:109F1000F0833E4E3E4F30883844FDF713FC3288C4
:109F2000013292B2BB18328013F8011C0A29EDD11C
:109F300013F8023C0D2BE9D1DFF8F480354DB8F869
:109F40000000ADF806203946284402F0C6FF2B7801
:109F5000562B2A46474614D16B78652B07D12E4BDA
:109F60002E481B880DF10602294602F06BF829489D
:109F70004FF40072002102F0D9FF00233B803380B0
:109F8000C4E7502B25D16B786F2B1CD1224B214974
:109F90001B8823480DF1060202F09EF8E7E753788C
:109FA000612BE4D11F4852FA84F3E1B25B7B0D2BA5
:109FB00004F1010401D04354F5E71A4802F07DFF93
:109FC000194B1870D3E76C2BD1D1DFE7FDF7AAFB53
:109FD0009CE7422BE3D0432BC9D16B78422BC6D1EF
:109FE000124DDFF8509045F001054FF0C8084FF4CE
:109FF0007A40A847B8F10108F9D119F8010B0134EA
:10A00000FDF7B6FB062CF0D1B1E700BFBA7D00200A
:10A01000BA7B0020B6790020A8700020F0700020E4
:10A02000AC700020B67B0020B97B002020DB020052
:10A03000B47900207C700020FCF73CBFF0B5002311
:10A040004F1C934200DBF0BDC65C06F00F043509DF
:10A050009F2E8CBF37353035092C94BF30343734C0
:10A0600001F8135007F813400133EAE708B509492E
:10A07000094801F0E7FA08B1FCF71CFF064840F276
:10A08000032101F0F5FA18B1BDE80840FCF712BF52
:10A0900008BD00BF299D0200A87E002007B5002151
:10A0A0000822684602F042FF9DF80030694643F0FE
:10A0B000010302208DF80030FFF700FE08B1FCF725
:10A0C000F9FE03B05DF804FB30B5082285B0054603
:10A0D0000C460DEB0200002102F028FFFEF7FCFB0E
:10A0E00030F0080301D0FCF7E5FEFFF7D7FA85282A
:10A0F00002D008B1FCF7DEFE0DF10200FFF7D8FA3E
:10A1000008B1FCF7D7FE0DF10300FFF7D1FA08B153
:10A11000FCF7D0FE224B1A889B78ADF804208DF80E
:10A12000063025BB54B101A92046FEF719FC08B141
:10A13000FCF7C0FE2046FEF775FC2BE00720FCF77D
:10A14000B9FE20469DF803308DF80B30C0F3870030
:10A150009DF802308DF80C0002A901208DF80A301C
:10A16000FFF7ACFD08B1FCF7A5FE05B030BD01A9B5
:10A170002846FEF7F5FB08B1FCF79CFE2846AD002B
:10A1800045F00305FEF74EFC8DF80850002CD9D0A1
:10A190000028C8D0A40044F003048DF80940D1E79A
:10A1A000FCDA02004FF0A04303224FF40011C3F881
:10A1B0005427C3F80815C3F84C274FF40022C3F8FE
:10A1C0000C2570474FF0A0434FF40012C3F80C2544
:10A1D0004FF40022C3F8082570474FF0A0434FF416
:10A1E0000012C3F808254FF40022C3F80C2570476D
:10A1F0000388232B37B504465DD012D8132B71D0BA
:10A2000005D8102B18D0112B3BD003B030BD212B1B
:10A21000FBD1002369468088ADF80030FFF748FD88
:10A220005BE0522B66D0562B01D03B2BEDD1A088A2
:10A230001321FFF735FD50E0324B334918880004F5
:10A2400040F00300FCF77EFB0720FFF703FC08B19A
:10A25000FCF730FE2D4BA1882D48198001F00CFB36
:10A2600008B1FCF727FE2B4CFFF7ACFF4323A3708C
:10A27000002514F8010B0135FDF77AFA062DF8D107
:10A28000C3E7204B24491888224C000440F0030007
:10A29000FCF758FB1D4B4FF6FF721A80FFF79DFF2E
:10A2A0004423A370002514F8010B0135FDF760FA73
:10A2B000062DF8D1A9E7134B18491888000440F07F
:10A2C0000300FCF73FFB08220021684602F02EFE47
:10A2D000A08800226946FFF7EDFC002895D0FCF726
:10A2E000E9FD92E7094800231A4685210088FFF717
:10A2F000DDFCF2E7054800231A4619460088FFF7FF
:10A30000DBFCEAE714700020B0D90200A87000203E
:10A31000BC7E00207C700020BAD90200C7D90200A0
:10A3200080B5BAB0BA4DFFF73DFF642445F0010592
:10A330004FF47A40A847013CFAD1B64D0FCD0FAC8F
:10A340000FC495E80300B44BB44A0A9384E80300B1
:10A350004FF400630AACCDE90C230B93B04A0623FB
:10A3600021460FA8FDF786F908B1FCF7A3FD4FF4CD
:10A3700000410020FCF72EF908B1FCF79BFDFCF72B
:10A3800057F8FDF769F808B1FCF794FDA54AA6480F
:10A390000121FDF791F808B1FCF78CFDA3490120DC
:10A3A000FFF764FB08B1FCF785FD0FA90020FFF75C
:10A3B00055FC08B1FCF77EFDFDF7C4FE08B1FCF7C3
:10A3C00079FD02F0ADF908B1FCF774FD00230FA987
:10A3D00001200F9302F07AFA08B1FCF76BFD0FA889
:10A3E00002F03EFB08B1FCF765FD06AE3046FFF714
:10A3F00055FC0DF1190002F0EEFD8D4F024621468D
:10A400000DF11900FFF71AFE9DF81E3038880393EE
:10A410009DF81D3002939DF81C30019300049DF8B7
:10A420001B309DF81920009382499DF81A3040F0A6
:10A430000300FCF7AEFA804B0FAA03F1100C18686A
:10A440005968154603C5083363452A46F7D118688D
:10A4500099889B79AB710DF13C082860A980224650
:10A4600043460625917A1972013DD17A5972A2F1BB
:10A47000020203F10203F5D118F8010B0135FDF7D3
:10A4800077F9172DF8D16D4D11238DF814309DF803
:10A490002A302B749DF82B306B749DF82830AB74E8
:10A4A00028469DF82930EB7402F095FD294682B2CA
:10A4B00005A8FFF7F9FB08B1FCF7FCFC08AD082282
:10A4C0000021284602F032FD5D4A4FF4A0032846E1
:10A4D000CDE90823FFF7E6FB08B1FCF7EBFCFFF73B
:10A4E000C5FD584B58480893294601F0B3F908B107
:10A4F000FCF7E0FC00210422304602F017FD534B2C
:10A5000053480693314601F06BFB08B1FCF7D2FCCF
:10A510005048314601F08EFC08B1FCF7CBFC142208
:10A520000021204602F002FD00230A930C934A4BBF
:10A530000D930122112349488DF82C2021468DF8D6
:10A54000383001F060FF08B1FCF7B4FC4022002174
:10A550000FA802F0EBFC42490FA801F021F8414995
:10A5600011A801F01DF8404915A801F019F813A829
:10A570003E4901F015F811230FA8ADF8783001F02D
:10A580004FFE08B1FCF796FC394B186808909B8881
:10A59000AB804FF00408AC2200210FA88DF8188082
:10A5A00002F0C4FC02230C2200218DF83C3020462E
:10A5B00040F20163ADF83E3002F0B8FC45F245438D
:10A5C0002846ADF828300C9502F005FD294A239263
:10A5D000012200238DF8B8204022CDE93123ADF8C7
:10A5E0002C008DF878302448244B27940FA91F960F
:10A5F000ADF88880389300F0CAFB08B1FCF75AFC2C
:10A600001D48012100F0C0FB1C2200210FA837E0EB
:10A6100020DB020000DB0200C87E0020D086002084
:10A62000019F0200F19C020028DB0200859D0200D0
:10A6300014700020DBD902005DDA02008270002075
:10A6400009000C00C59C0200BC7E0020F59D0200A4
:10A65000F0700020AC70002000111100747E00200A
:10A66000F1D9020011DA020030DA02009170002004
:10A6700074DA020098700020BC7D0020D19D020099
:10A6800002F054FC00234FF42032CDE90F32ADF834
:10A690004A304FF470228DF84C30184B11921493BD
:10A6A0000322174B8DF848200FA8159300F05CFE8D
:10A6B00008B1FCF7FFFBFFF7F1FC16211720FFF7AD
:10A6C00003FD38880F49000440F00300FCF73AF915
:10A6D0000D4800224FF48031FCF700FF08B1FCF771
:10A6E000E9FB0A48012100F0C4FB08B1FCF7E2FBDA
:10A6F000FBF7D4FFFDF73CFDFAE700BF659D0200C4
:10A7000039A0020034DA0200887E0020BC7D0020DF
:10A710000369C1688B429DBF8268D21802F1FF3283
:10A7200003F1FF3394BF501A581A70472DE9F843CC
:10A73000D0E902940546A9EB0408406890452044FE
:10A740000F46144404D902F0C8FBEC60BDE8F8835E
:10A750004246A4EB090402F0C0FB6868224607EBFE
:10A760000801F0E72DE9F843C56806468946174613
:10A770004FF000083469B3687068A54228BFE41838
:10A78000013C621B5C1BBC4228BF3C46944228BF74
:10A79000144649462844224602F09FFBB3682544EC
:10A7A000AB4208BF00253F1BA044A144F560E1D1A6
:10A7B0004046BDE8F883000010B5114C114AA26173
:10A7C0000223C4E90433104BE361A2644FF4007325
:10A7D0000E4A0F492362E26400231022E01DA362A7
:10A7E0006362E362A3656365E365226502F0D1FB02
:10A7F0000849204602F0CDFB2023A37110BD00BF05
:10A80000D88E00202CDB0200608F0020508F0020AB
:10A8100035DB020039DB0200F8B5184C182300FBC9
:10A82000033503FB00402544C46A012C0F4616463D
:10A830000FD0022C1AD0F4B92846FFF769FF8642E0
:10A8400005D8324639462846FFF770FF3446204681
:10A85000F8BD2846FFF75CFF8642344628BF044611
:10A86000224639462846FFF761FFF0E72846BDE853
:10A87000F840FFF777BF0024E9E700BFD88E00203B
:10A88000FFF79ABF6DDF704779DF70477DDF704754
:10A8900064DF70472DE9F04F85B000250E9CBDF8B0
:10A8A0003CB0B4F800A00191074690461E46A94668
:10A8B0003A884A450DDC45B12388013BA3EB0A03E6
:10A8C0009BB2FF2B3AD806F80A30002005B0BDE84D
:10A8D000F08F7A6852F82900039000220DF10B01E5
:10A8E00003A8FFF7D5FF0028F0D19DF80B204245C3
:10A8F00021D12288002D14BF0020022002EB080184
:10A90000014459451ADC3DB9013292B2019B2280C3
:10A91000B35422880132228022880DF10B01324487
:10A9200003A8FFF7B5FF0028D0D121889DF80B20A0
:10A930000A442280012509F10109B9E70C20C5E785
:10A940002DE9F341089FBDF824801546CDE9007834
:10A95000022204461E46FFF79DFF50B933461022DF
:10A9600029462046CDE9087802B0BDE8F041FFF75E
:10A9700091BF02B0BDE8F0812DE9F04F00231788A8
:10A98000138090F82D3085B006460D46144653B31B
:10A99000082F01D80C2007E102A8FFF773FF002859
:10A9A00040F0028123880822EA54238801339BB2B5
:10A9B0001B222380EA542088013080B220800622A6
:10A9C0000DF10901284402F088FA23889DF8082037
:10A9D00006339BB212F0FE0218BF01222380EA5414
:10A9E000238801332380B378FBB123880433BB422F
:10A9F000D0D802A8FFF748FF002840F0D580238870
:10AA00000322EA54238801339BB219222380EA549B
:10AA10002388BDF8082001339BB2E9182380EA544B
:10AA2000120A4A70238802332380F2789AB123886D
:10AA3000D91CB942AED80221E954238801339BB214
:10AA400001212380E95423880B449BB22380EA54DC
:10AA500023880B4423807268AAB12388D91CB94289
:10AA600098D8022192F90020E954238801339BB23F
:10AA70000A212380E954238801339BB22380EA54BE
:10AA80002388013323803389002B40F08180338A6F
:10AA900053B1CDE900472B460722032106F11000F0
:10AAA000FFF74EFF00287FD1338B53B1CDE900472C
:10AAB0002B461522142106F11800FFF741FF00284C
:10AAC00072D1326A002A72D1D6F82480B8F1000F10
:10AAD00030D0B8F804302188981C8A1C0244BA424D
:10AAE0003FF658AFFE283FF655AF03336B5423882B
:10AAF00001339BB2FF222380EA54238801339BB2A7
:10AB00002380B8F80020EA54E918120A4A70208815
:10AB1000023080B22080B8F804205AB1D8F808106A
:10AB200000294ED0284402F0D8F92388B8F8042030
:10AB30001344238096F82C30002B7DD1307898B3C5
:10AB40003388012B3DD0228802F1020CBC453FF630
:10AB500021AF012805D17378023313449F42FFF4DB
:10AB600019AF023FBF1ABFB202A905EB0C00ADF846
:10AB70000870FFF78BFEB8B93378022B40F09F8046
:10AB8000BDF80830BB4240F2B580ADF808709FE0D8
:10AB9000CDE900472B460622022106F10800FFF707
:10ABA000CFFE00283FF473AF05B0BDE8F08FB4F8D6
:10ABB00000C00CF10603BB423FF6ECAE118805293C
:10ABC00001D80720F0E76FF4486E01EB0E039BB24B
:10ABD0004FF27D3E7345F4D95388052BF1D96FF4BC
:10ABE0004860181880B27045EBD94FF6FF7081426B
:10ABF00003D0834201D09942E3D8052305F80C30F5
:10AC0000238801339BB212212380E9542388013326
:10AC10009BB223801188E954E818090A41702388FF
:10AC200002339BB223805288EA54E918120A4A7010
:10AC300023880233238047E7B36A002BC1D04FF04B
:10AC400000094FF00C0A4FF0160B96F82C305FFA03
:10AC500089F293427FF672AFB16A0AFB02F201EB0E
:10AC60000208B8F80430981CFE283FF693AE2088FE
:10AC700003332B54238801339BB2238005F803B0A0
:10AC8000238801339BB223808A5AEA54E918120AB6
:10AC90004A702088023080B22080B8F804205AB16F
:10ACA000D8F8081000298CD0284402F016F923881F
:10ACB000B8F804201344238009F10109C5E7012BEA
:10ACC0007FF463AF73789F42FFF45FAFADF8083055
:10ACD0000821BDF80830FE2B3FF65CAE2288013318
:10ACE000AB542288013292B22280A95422881344A4
:10ACF000238059E70921ECE770B5C0B14AB1168845
:10AD00000024B44203D305196D789D4208D0A142B6
:10AD100001D800200BE0055D01352C44A4B2F0E71A
:10AD2000A142F6D9A31C1380005D013880B270BD2A
:10AD300013B513460022ADF806200DF106020446B5
:10AD4000FFF7DAFF10B1BDF80630E01802B010BD11
:10AD500072DF704773DF704774DF704738B50122C8
:10AD600004460D46B0F89810D0F89400FFF7E0FFC5
:10AD700000B1057004F13C0204F1940104F15400A7
:10AD8000BDE83840FFF7E4BF80F830107047F8B5F1
:10AD900004460F46002968D0002866D091F87A3022
:10ADA0001BB191F89830002B61D1D7F8A030042B5B
:10ADB0005DD0D7F89C30042B59D04FF0000C84F8AC
:10ADC00002C007F178060FCE251D0FC50FCE0FC5A7
:10ADD00096E8070085E8070084F830C0D7F8A4306B
:10ADE0006363D7F8A830A3634FF6FF7504F19403AB
:10ADF000C4F8A430A4F8A8500722614604F1AA00C0
:10AE000002F094F823780BB984F85450224604F1E8
:10AE100055011F25C4F89410384622F8985FFFF7B3
:10AE2000ABFD08BB224604F17401C4F89C1007F185
:10AE30003C0022F8A05FFFF79FFDA8B9A369A4F822
:10AE400048304FF480730125A4F8503063692064C2
:10AE5000014684F83C50636404F13C0204F1540060
:10AE6000FFF776FF00B92570F8BD0E20FCE707203C
:10AE7000FAE7F8B5077804460D46002F00F00D817B
:10AE800081700020FCF7A0FF014618B10123637018
:10AE90000020F8BD04F1AA060722304602F046F869
:10AEA000E38813B1A378012B04D0E3794BB1A378E5
:10AEB000022B06D1636BA3B1012284F8B1200820D4
:10AEC0009847334604F1B00113F8012F12B99942A3
:10AED000FAD117466B1E032B52D8DFE803F0050B9F
:10AEE0000F1284F8B130ECE7A3791BB194F8243049
:10AEF00003B95FB9E3790BB1002F43D1237A002B5B
:10AF000042D1637A002B0CBF00250425636BA5702A
:10AF1000002B3BD0033D012D38D86279002A35D073
:10AF200094F8B22092BB84F8B420012284F8B320B4
:10AF30000720984704F13C0518220021284601F01B
:10AF4000F5FFE36A94F82420581E0121022828BF47
:10AF50000B4684F83C1084F8513032B1884296BFD9
:10AF6000A36A84F8521084F85230A178002384F840
:10AF7000503004291BD8DFE801F07A0D25385C0039
:10AF80000025C3E70225C1E70325BFE7002384F8B6
:10AF9000B330CFE7C4E91063C4F8A4300223012220
:10AFA00084F83C30802384F83120A4F84830A3781A
:10AFB000002B5FD1636B002B3FF46AAF94F8310034
:10AFC000984765E70223002A84F8313014BF07232D
:10AFD000032384F83C302369A4F848300023C4F8E4
:10AFE000A430E36826646364E1E763696364A3698A
:10AFF000A4F8483012B1062384F83C306379B3B129
:10B0000094F8B2309BB994F8B43083B1022384F839
:10B01000503004212046FFF7A1FE0028C7D10523A8
:10B0200084F8313004F19403C4F8A430BFE703235B
:10B03000F6E7E3696364236AA4F8483012B1062393
:10B0400084F83C30637983B194F8B2306BB994F8EA
:10B05000B43053B1022384F8503004212046FFF766
:10B060007DFE0028A3D10623DAE70423D8E784F87D
:10B0700031309CE7D4F8A4102A4604F15400FFF7BD
:10B0800067FE00287FF405AF94F8301094F8540060
:10B09000FFF760FE00288DD0FBE60820F9E6038864
:10B0A000112B10B50C460AD0262B1FD0102B05D122
:10B0B000C37B012B02D18388A1F8A83010BD0022E8
:10B0C000838881F8B220B1F8A8209A42F6D10B7992
:10B0D000002BF3D101212046FFF7CBFE0028EDD055
:10B0E000A36B002BEAD0BDE810401847037A013B60
:10B0F000012BE3D8897805230131B1FBF3F303EB8E
:10B100008303C91AC9B2E6E70238012810B50C4614
:10B110000DD84B785BB100234B7020468978FFF740
:10B12000A8FE20B1A36B13B1BDE81040184710BDB5
:10B1300038B5044690F85400FFF70EFE012384F85A
:10B14000B230002384F8B43084F850300621204611
:10B15000FFF704FE054638B9A1782046FFF789FEBF
:10B1600010B1A36B03B19847284638BD75DF70470F
:10B1700076DF70477ADF70477BDF7047034B1A88B2
:10B1800082420CBF18460020704700BF7C9100200F
:10B19000024B9B6903B11847704700BF60910020C4
:10B1A00073B585B22846FFF7E9FF044670B1164E25
:10B1B000027A337B9A420BD200F10A012846FFF74C
:10B1C000D5FFE8B1112801D0FFF7E2FF02B070BD52
:10B1D00000230372337C43B13B212846FFF7C8FFAD
:10B1E00030F0080301D0FFF7D3FF7369002BEDD0D7
:10B1F00000228DF80420ADF8065001A89847E5E735
:10B20000237A01332372E1E76091002037B50B46C2
:10B21000497A0F4A71B9D2E901141D7A0246002D0C
:10B2200018BF21465868FCF759F908B1FFF7B0FF7D
:10B2300003B030BD002119725369002BF8D00122F0
:10B24000ADF806008DF8042001A89847F0E700BF8C
:10B25000609100204B8802889A4213D842889A4213
:10B2600010D380888A8840F2F313984294BF031A5F
:10B27000C31A934206D800F2F310904234BF002064
:10B2800001207047002070470388122B70B50146DB
:10B2900059D004D8102B1ED0112B44D070BD502B88
:10B2A000FCD12F4BC288DB899A42F7D1038A022B4B
:10B2B000F4D186883046FFF761FF05460028EDD0BF
:10B2C00001F1120000F062F938BB6868FCF74EF932
:10B2D0000028E3D009E0C37B012BDFD14FF6FF70DC
:10B2E000FFF74CFF054620B90420BDE87040FFF78A
:10B2F0004FBF1C4A8E880680002303721368C0F873
:10B300000A305368C0F80E3010310A30FFF7A2FF40
:10B31000134B6872DB89002BC0D129463046BDE84B
:10B320007040FFF773BF8088FFF728FF04460028AE
:10B33000B4D04068FCF71AF908B1FFF729FF4FF6BF
:10B34000FF732380AAE786883046FFF717FF05467C
:10B350000028A3D008310A30FFF77CFF6872DCE7D1
:10B360006091002090910020F8B5064648B305464C
:10B370000FCD154F3C460FC495E8070084E8070041
:10B380003068124C3C60B0B1FFF7F4FEC0B93268CF
:10B3900013682360536863600D480E4A4FF6FF73CD
:10B3A00003800D4B40F8043F0021FCF785F800288E
:10B3B00018BF032004E02046FFF7DEFE0028EBD094
:10B3C000F8BD0E20FCE700BF6091002090910020A6
:10B3D0007C910020A1B102009891002073B50191E9
:10B3E000019C06466CB100252C46294601A8FCF7B5
:10B3F0006FFA18B106EB440301349D800135142D1A
:10B40000F3D13046346002B070BD00002DE9F04742
:10B4100003888488112B8CB005463CD01A2B3FD072
:10B42000102B17D1284EB368DB4300937168684630
:10B43000FCF77AFA009901A8FFF7D0FF0DF108098F
:10B440004FF00008019B984507D3132C13D9042013
:10B45000FBF730FD0CB0BDE8F08739F802AB0027F0
:10B460000137514606EB8700FCF728FA1D2FF7D16C
:10B4700008F10108E6E715482146FCF716FA1448DA
:10B480002146FCF712FAEB7B012BE3D01148214651
:10B49000FCF70BFADEE70D482146FCF70FFAD9E777
:10B4A000037A0D481F2B4FEA1315214606D9FCF7E6
:10B4B000FCF9022D09482146EAD1EEE7FCF7FEF936
:10B4C00006482146E9E700BFB8910020C09100205E
:10B4D000BC910020C4910020C8910020CC91002094
:10B4E0001328014602D80248FCF7F2B90020704741
:10B4F000BC91002007B50190FFF7F2FF019930B130
:10B500000448FCF7E5F9002814BF0220012003B02D
:10B510005DF804FBC091002010B5034B0446596848
:10B52000FFF75CFF204610BDB891002010B504461F
:10B53000FFF7D6FF002814BF2046142010BD70B5B9
:10B540000546164608460AB90E2070BD0023136052
:10B55000002DF9D02B68002BF6D0EB8813F00304F4
:10B560000ED1FFF7E3FFC0B214280BD02B79834232
:10B570000AD9EB882A6800FB032030602046E4E704
:10B580000720E2E70520E0E70420DEE7007800F08E
:10B59000010070470B7803704B78437002207047AE
:10B5A00038B5044608460D4601F015FD656020805B
:10B5B00038BD90DF7047A5DF7047B5DF70470000EA
:10B5C000F0B585B00023ADF80810ADF80A106A4652
:10B5D00002A9074603930093ADF80430FFF7E9FF93
:10B5E000064620B3134C2588FCF71CFE2D0445F0BD
:10B5F0000105034610493A462846FBF7B0F9BDF865
:10B600000020BDF8023052EA030106D020880B4921
:10B61000000440F00100FBF7A2F9BDF8042032B1AC
:10B6200020880749000440F00100FBF78FF93046FD
:10B6300005B0F0BD2C70002040DB02008ADB020068
:10B64000C9DB020080B1094B0360FB23037140F2A8
:10B650000323C3801723038141F6FB3200230161DA
:10B6600043818281184670470E207047030203020F
:10B6700038B1A1F11703B3F5F67F04D8018000209B
:10B6800070470E20704707207047000037B503460B
:10B6900080880C46B8B91A88242A00F09A8014D8F9
:10B6A000112A74D0232A00F0A280102A3AD0A37A5B
:10B6B0004BB1E1880020FFF77EFF002840F09D801D
:10B6C0004FF48073638103B030BD3A2A69D0552AA4
:10B6D000EDD1DB88C988A072172B38BF17238B42A6
:10B6E00028BF0B462381FFF768FF58B14B4B1D88DD
:10B6F000FCF798FD2D0445F001050246484928460F
:10B70000FBF724F9E37A002BD1D12369002BCED0AB
:10B7100040F6772200922289ADF80420694620463F
:10B720009847C4E7DB7B0A790A73012B13D0022BFD
:10B7300014D0E18823898B4205D20020FFF73DFF1A
:10B7400070B90123E372217B637B8B42AFD200206F
:10B75000FFF736FFABE70B88E380EAE74B88FBE7B0
:10B76000112802D10123A372EDE7082802D100239A
:10B770006381E8E7294B1D88FCF754FD2D0445F053
:10B780000105024627492846FBF7E0F8DBE740F2CF
:10B790000323CB8017230B8141F6FB3348818B8138
:10B7A00085E75B89CA88934228BF1346172B0A692D
:10B7B00038BF17230B814AB1C97A39B140F67721D6
:10B7C0000091ADF80430694620469047002363811C
:10B7D0006DE71A7A0B694A73002B3FF468AF4DF698
:10B7E0007A218DF8050000918DF8042096E7197AEA
:10B7F000237B994228BF1946AAE711283FF463AF7B
:10B80000064B1C88FCF70EFD240444F0010402469C
:10B8100004492046FBF79AF855E700BF2C7000203A
:10B8200050DC02001FDC0200B0DF704766DF7047AB
:10B8300010B5002104464088FFF7F8FF034608B919
:10B84000237210BD112801D10123F9E76368BDE817
:10B850001040184760B159B10378DE2B0AD00B684D
:10B860004360DE2303704FF6FF7343800020704770
:10B870000E2070470820704728B10378DE2B04D1D2
:10B880004180002070470E20704708207047F0B5B7
:10B89000054685B00C46F1B1E8B10B78DE2B1AD124
:10B8A00082884B889A4204D10B7A13B10846FFF77D
:10B8B000BFFF2B88112B32D0512B0ED0012B0AD178
:10B8C0002B7A012B07D1A9886288914203D1237278
:10B8D0002046FFF7ADFF05B0F0BDAE886388B342E8
:10B8E000F9D1AF79022FF6D1AD7B2B1F022BF2D805
:10B8F00000211022684601F019FB052D14BF4FF4FA
:10B90000C0730023694630468DF80070ADF80430EE
:10B91000FFF78AFF0028DED063689847DBE763887B
:10B92000AA889A4204BF4FF6FF736380D3E7A8DF6B
:10B930007047AADF7047ACDF7047ADDF7047AEDFFE
:10B94000704762DF704770B505468AB00C46002923
:10B950007DD000287BD00388502B3CD0572B00F0A3
:10B96000D480102B73D18188606B002601AA0196C8
:10B97000FFF7E5FD082231460DEB020001F0D6FA93
:10B980000223218EA888CDF80CD002AA0293FFF7DB
:10B99000D4FF00285BD1A36B002B58D00398FFF78E
:10B9A000F5FD002853D0019B2BB101221A705A706B
:10B9B0009A70DA701A711822002104A801F0B6FA00
:10B9C00002238DF81030AB88ADF81830019B059438
:10B9D0000793A36B23E08188606B02AAFFF7AFFD9A
:10B9E0001822002104A801F0A1FAAB882189ADF842
:10B9F0001830EB88029A05949942079217D12E8A43
:10BA0000022E14D11AB305F11200FFF7BFFD029BFD
:10BA100040B101221A708DF81060A36BBBB104A86D
:10BA2000984714E0187003238DF81030F5E7A188CB
:10BA300099420ED1A16B61B100238DF8103005F150
:10BA4000120308932B8AADF8243004A888470AB063
:10BA500070BD218A99420FD12E8A022E0CD1002A64
:10BA6000F5D005F11200FFF791FD029B10B1012204
:10BA70005A70D0E75870D6E7218B99420FD12E8AA1
:10BA8000022E0CD1002AE2D005F11200FFF77EFD54
:10BA9000029B10B101229A70BDE79870C3E7218C18
:10BAA00099420FD12E8A022E0CD1002ACFD005F157
:10BAB0001200FFF76BFD029B10B10122DA70AAE7BA
:10BAC000D870B0E7218D99420FD12E8A022E0CD169
